:020000040800F2
:1000000000A0002091E200086B8E0008CDC400081B
:10001000698E0008678E0008658E000800000000E9
:10002000000000000000000000000000638E0008D7
:10003000618E0008000000005F8E0008297400082F
:10004000F9E20008F9E20008F9E20008F9E2000824
:10005000F9E20008F9E20008F9E20008F9E2000814
:10006000F9E2000839740008F9E20008F9E2000832
:10007000F9E20008CD8400081D8E0008F9E20008AE
:10008000F9E20008F9E20008F9E20008F9E20008E4
:10009000118F0008F9E20008F9E20008F9E200080F
:1000A000F9E20008D18B0008F9E20008E18B0008B2
:1000B000C58B0008B58B0008A58B0008F9E2000885
:1000C000F9E20008F9E20008F9E20008F9E20008A4
:1000D000F9E20008A58D0008F9E20008F9E200083D
:1000E0003F740008F9E20008EDD10008F9E20008C9
:1000F000858B0008F9E20008958B0008F9E20008FA
:10010000000000000000000000000000F9E200080C
:10011000F9E20008F9E20008F9E20008F9E2000853
:10012000F9E20008F9E20008F9E20008F9E2000843
:10013000F9E20008F9E200080000000000000000F9
:10014000F9E20008F9E20008F9E200080000000006
:10015000000000000000000000000000000000009F
:100160000000000000000000F9E20008F9E20008C9
:10017000F9E200080000000000000000000000009C
:0801800000000000F9E2000894
:100188002DE9F04FA44C2378062B9CBFA34A3421B9
:100198002DED0E8B98BF01FB032393B094BF9F6A8C
:1001A80000279F4D9F4EEB680BA898479DF82C3071
:1001B80023B12378062B0CD900230FE006F0AAFE02
:1001C800994B1B68FB1A1844336864339842E8D388
:1001D800EFE7924A342101FB03239B6AD6ED000A1C
:1001E800924A9FED939A934C934E9BB2F8EE600A15
:1001F80007EE903A138060EE890A904AB8EE670AD3
:1002080020460121C2ED000A07F0D0F9FCEEC07AC1
:10021800894817EE903AA3816B68984740B9884D92
:10022800DFF834922B6813F0020F40F0CA80DCE349
:1002380025692DB3B71E0020824900F1180301EB90
:10024800000C0B44624605F1FF3E002132F8028F94
:1002580022F8028C1EF9019F9A4218FB0911F5D168
:1002680037F8023FACF8183095F90C201A304E28B0
:1002780013FB02134FF4807293FBF2F33B80DBD144
:100288006D48714F94F862206A4D014604F01CFFD6
:100298003B8805F1B00A002B6BD06B6E1B7808EE1B
:1002A800103A05F168084FF0000974353988B1F53E
:1002B8007A7F02BF0023C8F800302B61D8F80020ED
:1002C80036F919301A4407EE903A2B69C8F800201D
:1002D8000133012B4FEA490BF8EEE77A2B6106D17F
:1002E8000023C5ED017AC5ED007AAB601BE0D5EDC2
:1002F800006A07EE103A37EEE66AB8EEC77A86EE7D
:10030800077A36EE877AD5ED026A85ED017A77EEBF
:10031800C77A85ED007AE6EE276AF0EE667AC5EDD3
:10032800036AC5ED026A0023012926F80B302AF872
:100338000B302AD12B69012BC3BF03F1FF3300EE29
:10034800103AD5ED037A9FED410AC4BFB8EEC00A52
:1003580087EE800A0FF0DAFE18EE103A5BB1F8EE7D
:10036800C87AB4EEE70AF1EE10FA04DD4FF47A73B6
:100378003B8000231AE0D8F800304FF47A7203F576
:10038800FA7393FBF2F32AF80B3009F10109B9F17A
:10039800030F08F1040805F1140587D138880128EE
:1003A80001D106F069FD3B88013BE1E736F81320EF
:1003B8003AF81310521A26F813200133032BF5D1FB
:1003C8002DE7234B1B78002B00F00F8306F0A2FDCE
:1003D800D4F8B830C4F8B800C31A0AEE103A0027A7
:1003E800D4F8BCB0DFF874809BF80010C1B339F9B9
:1003F8001730F8EE4A0A00EE103A164B0C2000FBB4
:100408000730B8EEC00A60EE890A07F0CFF8FDEEB3
:10041800C07A17EE903A25E088020020900000206C
:10042800C0150020FC170020100C00205C180020CC
:10043800BD37863510050020AE140020C4140020F6
:100448004C1800202405002058230020000000003C
:1004580040230020D005002010230020E60B0020B8
:1004680039F8173028F817300137032FB8D1B8F802
:1004780000300593B8F80220BDF81430B8F804101D
:100488002F6812FB02F913FB0399A14B11FB019989
:10049800642000FB09F0B3F8009017F0080709FB87
:1004A80009F99A4690FBF9F9A9F152090DD0994832
:1004B800B0F900703FB1B0F9027027B1B0F904701B
:1004C800003718BF012707F00107B6F90030D4ED4F
:1004D800395A904809920AEE903AB6F90230B0F8C3
:1004E80000C008910BEE903AF8EEEBBAB6F904307A
:1004F80046888088CDF81CC06BEEA5BAF8EEEAAA4B
:100508000BEE103A6AEEA5AA2BEEAB0AB8EECBBA00
:10051800AAEEAA0A0690804DDFED808A2BEE25BA56
:10052800F8EE4A7AABEE0B0A27EE899A0FF0EEFD49
:10053800F7EE009AB0EE40CA0698DDF81CC008999C
:10054800099A002F5BD00FFA8CFC07EE90CA33B2E1
:10055800B8EEE7DA08EE103A2DEE0D0AB8EEC88AC2
:1005680000B207EE900AA8EE080AF8EEE7CADFED37
:100578006C7AACEEAC0AB4EEE70AF1EE10FA3EDDA6
:10058800079206910FF0C2FD89EE800AD5ED017A37
:1005980095ED007A28EE008A2DEE00DA68EE277ACB
:1005A8006CEE80CAE7EE0D7A95ED040A95ED027AB5
:1005B80028EE008AE7EE2C7A95ED037AA7EE0D8AED
:1005C80095ED057AA7EE2C8AB0EE68DA28EE080ACF
:1005D800F0EE68CAA7EEA70A0FF098FDD5ED067AE7
:1005E8000699079A20EE480AA7EE80DAD5ED077A31
:1005F800E7EE80CAD5ED087AE7EE808A03E0F0EEF0
:1006080068CAB0EE68DAB9F1260F3ED8BDF91430E1
:1006180007EE903A12B2B8EEE78A07EE902A28EE73
:10062800080AF8EEE7DA09B207EE901AADEEAD0A5D
:10063800B8EEE7EADFED3A7AAEEE0E0AB4EEE70A74
:10064800F1EE10FA21DD0FF061FD89EE800AD5ED9B
:10065800076A95ED087A2EEE00EA6DEE80DA66EE0E
:10066800CE7A28EE008AEDEE877A27EE487A3DEEBC
:1006780027DAD5ED067AAEEE277A67EEED7A7CEECC
:1006880087CAE8EE267A78EEA78ADBED017AF5EEDE
:10069800C07AF1EE10FA4FF000031FDD9FED217ACA
:1006A800B4EEC7CAF1EE10FA1ED567EE8D6A94ED66
:1006B8003A7AA6EE897A67EEAC6A84ED3A7A94EDD6
:1006C8003B7AA6EE897A67EEA87A84ED3B7A94EDB8
:1006D8003C7AA7EE897A84ED3C7A05E0C4F8E830E4
:1006E800C4F8EC30C4F8F0300F4EDBED027A337802
:1006F80059071DD40D4B1A6844F61F639A42F7EE4A
:10070800005AB2EE047A98BFF0EE475A12E000BFE2
:10071800000000200A0C00207417002000000000D0
:100728000AD7233CC2B8B23E5F2300200C18002031
:10073800F7EE005A67EEA55AD4ED3C6A94ED3A7A82
:10074800D4ED3B7ADFF85093C74A99ED004AC74B7E
:10075800D2ED003AC64F0692E5EEA86A0593A5EEDB
:100768008D7AE5EEAC7A3BEE26BAF6EE006A69EED3
:10077800266A7BEEA77A3AEE877A27EEA66A27EEF4
:10078800267A6BEE266A26EE445A24EE260AD3ED24
:10079800007AD7ED004A9FEDB78AA7EEC75AA3EEB5
:1007A800870AF1EE645AA5EEA65AA5EE860A66EE09
:1007B800E75A37EE800AE3EE865A67EE867A33EE1A
:1007C800855AE4EE875AE3EEA67A83ED000A20EE16
:1007D800000A74EE255AA5EE050AE4EE477AA5EE5E
:1007E800A50A74EEA77A82ED005AA7EEA70AC9ED0A
:1007F800005AC7ED007A0FF089FC89EE800A069A44
:10080800059BD2ED007AD7ED009A67EE807AC2EDAB
:10081800007AD3ED007A67EE807AC3ED007AD9EDDD
:10082800007A67EE807A29EE800AC9ED007A87EDB2
:10083800000A09F091FFD5ED080A95ED070A8E4FD9
:100848000FF062FC20EE080A0FF0BAFB95ED060ADD
:100858003880B1EE400A0FF0F9FBDFED887A37EE09
:10086800C00A20EE080A0FF0ABFBD5ED000A95EDA3
:10087800030A78800FF048FCD4ED3D7AE0EE487A20
:10088800B0EE670A0FF09CFB83B21A0458BFBB8016
:10089800D5ED085A7A4BD4ED3E7A1A7895ED010ACF
:1008A80095ED065AF4EEE75A44BF00F56160B8804A
:1008B800F1EE10FACCBF42F0080222F008021A70DA
:1008C800B8F90030D5ED007A06EE103AB8F90230E2
:1008D80007EE103AB8EEC77AB8EEC66AB8F904302F
:1008E80027EE000A06EE903AA7EE860A9BF801303A
:1008F800F8EEE66AD5ED027AA7EEA60A012BD5ED49
:10090800077A67EE277AE5EE067AE5EEA67AD5ED60
:10091800045A27EE257AD5ED035AA5EE867A95ED89
:10092800056AA6EE267AB1EE478A18D133785D07B4
:100938000FD4D4F8FC30402293FBF2F29B1A07EE56
:10094800103AB8EEC77A37EE277ABDEEC77A84ED4B
:100958003F7AD4F8FC30402293FBF2F301E0BAF876
:100968000030D4ED408A07EE103AB8EEC77A77EE39
:10097800C77A94ED417A39EE077A77EEE87A89EE0C
:10098800079AE9EE278AC4ED408A0FF019FBD4F8DC
:100998000851297807F048F8D4F80C31B0EE480A25
:1009A8001844C4F80C010FF00BFB297807F03CF849
:1009B800D4F81031B0EE680A1844C4F810010FF0EA
:1009C800FFFA697807F030F8D4F814312D4A184442
:1009D8001AEE101A1368C4F814011944D4F818311F
:1009E80011600133C4F8183106E00023A9F800307B
:1009F800A9F80230A9F80430234BB3F90610234BA9
:100A0800D3F800E0BEF80A2091420FDBB1F5FA6F87
:100A18009EF80750BDBF8B1A6B43A2F5FA65C5F166
:100A28006405BCBF93FBF5F5643500E06425184BFD
:100A3800184AB3F894C193F95E31126805929BB2D3
:100A4800164606930022104B33F91280CCEB0803AC
:100A580003F2F31440F2E63084424FEA42091DD80B
:100A6800002BB8BF5B421BE08C00002068170020F9
:100A7800701700204C3D0F44A8140020DB0FC93F1D
:100A8800000D002044230020A0220020DC170020B5
:100A9800841B00200C1000206C1700204FF4FA7300
:100AA800022A059C4FF064002AD094F81D411CB11D
:100AB800A342CCBF1B1B0023B54C93FBF0F76FF090
:100AC800630B34F817A00BFB073B013734F91740C9
:100AD8000FFA8AF7E41BAF4F04FB0BF494FBF0F416
:100AE800544427F809400EEB020424796343AA4CC6
:100AF80093FBF4F364339BB26B4393FBF0F02CE06D
:100B080094F81E411CB1A342CCBF1B1B0023A34C6D
:100B180093FBF0F06FF0630A0AFB003B04EB40071D
:100B280004EB4000B7F91C71B0F91E01C01B00FBB3
:100B38000BFBBDF818009BFBFAFBC7EB0B0717FB79
:100B480000F7944887809EF80600002BB8BF5B42E8
:100B58004343914893FBF0F064307478904B6427DA
:100B6800444394FBF7F49C5403F1030AF47A444396
:100B780094FBF7F40AF802400633747D022A00FB5E
:100B880004F0844C90FBF7F09854864B0DD1E04567
:100B98009F700DDB844DB5F89621914214DBB1F5B9
:100BA800FA6FA8BF4FF4FA610FE0E0459D5404DAEC
:100BB80034F809305B4224F809300132032A06F17F
:100BC80001067FF440AFE5E71146DFF81CE2714EFD
:100BD800891A4FF47A736FF063005943C2F5FA62C9
:100BE8006423B1FBF2F191FBF3F23EF8127000FBC3
:100BF8000211013238B23EF91220121A514391FB08
:100C0800F3F33B44E380694B1B8858063CD5684B9B
:100C1800DFED687AB3F904309FED670A0A2293FB87
:100C2800F2F35E4AB2F834219B1A1BB208EE103A6E
:100C3800B8EEC88A28EE278A38EE000A06F003FFC5
:100C4800F0EE408AB0EE480A06F0FDFEB6F9023032
:100C580006EE903AB6F90030F8EEE66A07EE903AFA
:100C680020EE667AF8EEE77AA7EEA87A67EE807A41
:100C7800BDEEC77AE6EEA87A17EE103AFDEEE77AEF
:100C8800338017EE903A738095F89A31002B51D043
:100C9800424B9A89B3F83601B0FBF2F0474A461C3A
:100CA8001278B6B2A3F8386112B3B3F83A910023B8
:100CB8003A4F34F813C007F5A27E07F59E783EF840
:100CC800132038F813102EF813C0C2EB0C0A11FBCE
:100CD80009F132B291FBF2F2524428F813200133A1
:100CE800042BE5D1354BA7F83A0100221A7004E02D
:100CF800B3F83A21013AA3F83A21284AB2F83A015E
:100D080003B2002B4FF0000312DDB2F938612C4911
:100D180031F81320083112FB00F231F8131092FB5E
:100D2800F6F28A1A24F813200133042BEFD101E0DC
:100D3800A2F83A31234B244E1A7812F0040F03D04C
:100D4800224B08221A8560E03168C9075CBF42F06F
:100D580001021A701E4A127812075EBF1A7822F032
:100D680001021A701B4A11881B4A19B11B490968EC
:100D78008F0706D41A49098819B91A4800886428BF
:100D880034D9022111701A7822F001021A7033E066
:100D98003A100020A01400200CFEFFFF10050020D0
:100DA8003A060020B4140020841B00203E140020C2
:100DB800A814002035FA8E3CDB0FC93F540D0020E3
:100DC8004C0600205F230020EC0C002000040048A3
:100DD800000D0020100D0020341800204C180020B1
:100DE8005823002048180020221000201B78D8071C
:100DF80056BF02231170137006F08CF8AB4B1B68BA
:100E0800C01A002801DB09F0CBFEA94B9B680BB187
:100E1800A8489847A84B1B78ABB1A84BB3F9062054
:100E2800B5F896319A420EDCA54B5B79012B01D0BF
:100E3800192B02D195F8E6212AB90E2B03D0082BDD
:100E48001CBF0023A3809F4B1A6892F82471984610
:100E58009FB39D4B1B889B072FD09C4BDFED9C7A43
:100E680093ED080AB4EEE70AF1EE10FA21D90FF073
:100E7800EDF8984BD3ED547A20EE270A0FF0A0F83E
:100E8800B0F5617FA8BF4FF4617007EE900AB8EE25
:100E9800E70ADFED917A80EE270A06F0D4FD07EE27
:100EA800907AF8EEE77A27EE800A0FF089F880B298
:100EB80000E00020E3881844E080884B1B784BB1A1
:100EC800874B00221A605A609A60864B00221A608B
:100ED8005A609A60844BD8F80000B5F86A210093EC
:100EE800824B1F68824B196800F16403B847814B35
:100EF80078491878804B03281BD9D1F85421B2F8C7
:100F080002C0BCF5FA7F14D2B4F904E0B3F9048046
:100F1800BEF1000FB8BFCEF1000ECCF10007CEEB4A
:100F28000702904504DB0CEB0E024245A8BF42467F
:100F38009A80326817010CD5D1F85491B3F802C0E1
:100F4800B3F80080B3F904A06C4E00210A460F469E
:100F58007DE06B4A126812F48052EDD1694ED1F8E7
:100F680054C132705F88E688B3F800E0B3F90480B2
:100F78006549824201F1100180F00E819CF9003030
:100F880051ED045ADFF888915B4208FB03F307EE42
:100F9800903A0FFA8EF306EE903A33B206EE103A14
:100FA8003BB2B8EEE77A07EE903AF8EEE77AB8EE99
:100FB800C66A67EEA57A51ED065AE6EE257AF8EE8E
:100FC800E66A11ED056AE6EE867A51ED036AE7EE08
:100FD800267AFDEEE77A17EE903A29F812300132B8
:100FE800C7E799F9003096ED016A5B420AFB03F303
:100FF80007EE903A0FFA8CF306EE903A0FFA88F360
:10100800B8EEE77A07EE903AF8EEE77AF8EEE66A95
:1010180067EE867A96ED026AE6EE867A0DF12C0E78
:101028000FFA82FBD6ED036AE7EE267AFDEEE77A41
:10103800CDED057ABDF814302EF817300FFA83FE7F
:10104800DE4507DD1A460B4601371036194687423A
:10105800C7D305E00FFA81FBDE45F5DB1346F1E760
:101068002A4B284E1B685F88B3F800E0521ACEEB73
:10107800070189B20BB212B29A424FF0000349DD60
:101088004FF0010C86F800C083420BD20DF12C0CF6
:101098003CF8136016FB01F696FBF2F62CF8136089
:1010A8000133F1E71FFA8EF6BAB23CE03818002097
:1010B800C01500205C06002004000020A0220020AB
:1010C800841B00200C1000203E1400207417002000
:1010D8008FC2753C10050020EFB6B0440600002012
:1010E800D41400209C1500200A1D00208C0200202A
:1010F800DC1700201C1600201015002068060020B0
:101108009C2200206023002070060020EC1600209E
:10111800D41500203370022192FBF1F20EEB02038A
:10112800BA1A9EB292B2E7880021814234D20BAB40
:1011380033F9113007EE903A3BB206EE903A6B4B1A
:1011480003EB0113B8EEE77AF8EEE66AD3ED007A1E
:1011580033B266EEA76A07EE903AF8EEE77AF4EE55
:10116800E76AF1EE10FA0BD413B207EE903AF8EEF4
:10117800E77AF4EEE76AF1EE10FAD8BFF0EE667A95
:1011880077EE277ADFF878E1FDEEE77A17EE903A06
:101198002EF811300131C8E7554BDFF884E11A7891
:1011A80002F0040202F0FF0312B99EF800207EE06C
:1011B800504B5149DB780693504B186810F0006388
:1011C80005931DD10B68DE0418D44D4A9EF80070B3
:1011D80013880126BE420FFA83FC07D232F9163073
:1011E8006345B8BF63469BB20136F3E7454A1268C8
:1011F8005288944504DD9A1A92B202E0059A00E0FA
:1012080000220B6840499EF800B0B1F906603F49DA
:10121800D1F818C23E4903F480590F68394903F0E0
:1012280010030793364B096803EB4B0B5B4535D02E
:10123800059850B9B9F1000F40F01684B3F800E0F2
:10124800C2EB0E0EA3F800E003E0B9F1000F40F086
:1012580016840698B1F80280B3F900A040B1B1F83D
:1012680004E0F24516DBC245D646A8BFC64611E0E3
:10127800B1F800E0F24503DBC245D646A8BFC64632
:10128800A3F800E0BCF810E0764505DA079818B135
:10129800B1F804E0A3F800E00233C7E71B4890F870
:1012A8001C32013BDBB2182B00F23D8109E093426E
:1012B800F4D2184931F81300114921F81300013309
:1012C800F5E701229A40144B1340002B00F02B81C4
:1012D800124B0D491B8813F4807F23D02388ADF867
:1012E8002C306388ADF82E30A38831E068060020E2
:1012F8005F230020101800209C220020EC0C002006
:10130800D4150020EC160020A02200201005002093
:10131800E8160020E0170020992098013E140020CC
:101328001C160020B54B1A88ADF82C205A88ADF849
:101338002E20B34A9B881268ADF83030D40409D502
:10134800D0F81822B1F90640D289944202DA5B42F9
:10135800ADF83030AB4CB4F902304FF47A7203F583
:10136800E16353434FF4616093FBF0F3A3F5FA7321
:10137800ADF84430B4F9003003F5E1635A43A24BA9
:1013880092FBF0F21B88A3F2DC53ADF832309F4B8E
:10139800A2F5FA72D3F81832ADF84620DB890A882C
:1013A800D21AADF834204A88D21AADF836208A8885
:1013B800D21AADF83820CA88D21AADF83A200A896C
:1013C800D21AADF83C204A89D21AADF83E208A8953
:1013D800D21AADF84020CA89D31AADF8423000239A
:1013E8008B4A002122F813100133082BF8D1894ABF
:1013F800894B12680592894A1B78126888490692B7
:10140800884E072202FB031B594572D00B7833B173
:1014180003F1150201239340059A134065D011F892
:1014280006CC069B11F805AC11F8034C11F8018C99
:10143800CCEBCC0E03EB4E0E6420BEF90020BEF9B7
:1014480002309B1A9BB211F9022C4FEA53095A43F6
:101458004FEA4A0792FBF0F212A8C9EB020292B2D5
:10146800074414B937F81C0C0CE0B6F9000037F93A
:101478001C7CB84208DA0444844203DBA74238469D
:10148800A8BF2046308008E007DD041BBC4203DB10
:101498008442A8BF044627463780DEF80A4011F97F
:1014A800047C012000FA0AF02042308812B217FBAF
:1014B80000F014BF4FF0FF340124642790FBF7F0CD
:1014C80090420ADB4FFA88F25A4392FBF7F2C9EBD3
:1014D800020212B28242A8BF02464D4B33F81C905A
:1014E80002FB049423F81C4000E0338002360731E5
:1014F8008AE74A4B4C4FD3F8008000260E2202FBA5
:10150800068237F8023F92F90640F0B214FB03F363
:10151800642493FBF4F43C8009F004F90136204478
:10152800082E3880EAD1364B394E1A683B4F12F0F4
:10153800200F984632D0002009F0F4F83080044695
:10154800012009F0EFF8334B70801B68190625D588
:101558002E4B2C4AD3F840321B78012B22D1396804
:10156800138891F914E0B2F902201EFB03F34FF03F
:10157800320C93FBFCF31FFA83FE91F906305B42B1
:1015880053436FF0310193FBF1F10EEB0102A11807
:1015980093FBFCF37344318018447080D7F800E063
:1015A800002318E0D7F800E053889EF9061011FBD5
:1015B80003F1322391FBF3F12144318011889EF924
:1015C800142012FB01F292FBF3F21044E5E7013319
:1015D800082B32532AD00E2101FB03E136F9130000
:1015E800B1F90020B1F9021090424FEA4304EEDB52
:1015F8000AB28242A8BF0246E9E700BF10150020E0
:101608009C220020A8140020D415002010050020DA
:10161800EC0B0020EC0C0020F0160020101000202D
:10162800F71600202E070020EA0B0020A54CD4F85E
:1016380054A19AF90830A3B994F81C9209F1FF3320
:10164800182B72D8DFE803F03571714F717171484A
:1016580071717171715971717171714F65717159D0
:101668003500DFF884B24FF00009974B3BF9021FB1
:10167800BAF90620882000FB093008F07FFE3A6896
:101688000E2380B203FB0922ABF80000B2F9003048
:10169800B2F9022000B2984203DB13B28342A8BF1A
:1016A800034609F10109B9F1080FABF80030DCD1A4
:1016B800C2E79AF8043013B10020718908E0834B1F
:1016C8001B7803F0040303F0FF00002BF4D101465C
:1016D80006F0ECFE012729E00020F18806F0E6FE7E
:1016E8000120318905E00020318906F0DFFE71898B
:1016F800012006F0DBFE022718E00227B81E36F8A4
:101708001710C0B2013706F0D1FE082FF6D1062710
:101718000CE00327F81E36F81710C0B2013706F0A0
:10172800C5FE072FF6D1042700E00027D8F80030BF
:101738009A0602D4B9F1050F0AD13846318806F065
:10174800B5FE781CC0B2718806F0B0FE0237FFB251
:10175800D8F80030DB0205D494F888367BB108F05D
:1017680029FF0CE0DFF884910026B819C0B239F8D7
:10177800021F06F09BFE0D2EEED00136F5E7544B06
:101788001878002840F09A81D8F800301E0340F1FC
:10179800958194F88936023B052B20D84D4B93F858
:1017A800003733B1012B0AD108F0F8F8C0F17F00F7
:1017B80005E0444BD3F88C0603689B689847D4F837
:1017C800903694F894261344B3F5807FA8BF4FF45D
:1017D80080738342D4BFC4F89036C4F8900694F856
:1017E8008936023B082B00F22E81DFE813F009004E
:1017F8003F002C012C0158008100F0000E011B0154
:10180800354B1A68D4F89C3664339A4240F21B81EF
:10181800402009F047FF002840F0158140272F4B52
:10182800D4F89826274E985C1D4670B103F020FE28
:10183800D6F89036013BC6F89036D6F89836013F70
:1018480003F10103C6F89836E9D1D4F898261D4B60
:10185800AA5C002A40F0F780C3F898264FF0FF32C0
:10186800C3F89C26032283F88926ECE025230093FD
:101878001B4B019303F10C0202924920A3F10A02C7
:101888005021023303F052FF002840F0DC804FF073
:10189800FF33C4F89C36C4F898060623CCE0114AF6
:1018A80005230021009301910291532002F10803BE
:1018B80003F03CFF002840F0C680C4F898060723D0
:1018C800BAE000BF10050020580700205F23002061
:1018D8005B230020841B00200C18002098080108B6
:1018E80002090108B40A0108EA0B0020A622002018
:1018F800402009F0D7FE002840F0A580D4F898369B
:101908000C2B00F2A780DFE803F0070B0E12182358
:10191800282D3135434D51006B480EF0FFF850E04B
:101928006A486B4911E06B486B496C4A47E06C4860
:1019380095F8FE1695F8FF2641E095F8D8366948DF
:101948000C2202FB035595F8DA160EF0E7F838E09A
:10195800654B6648B3F84011F7E7634B6448B3F842
:101968004211F2E7634B64481969EEE7634B644838
:101978001988EAE7D4F8A036D80404D55A4B614848
:1019880093F87811E1E7604B0B22C3F8982618E02A
:101998005E4895F87C1195F87D2195F87B310EF01D
:1019A800BDF80EE05A48B4F8A416CEE7D8F80030CF
:1019B800190506D55748B5F88011B5F97E210EF0FE
:1019C800ADF8D4F898360133C4F898363BE0524B5A
:1019D8001B689A0116D5B4F8A8364B4D93B9D5F8BB
:1019E800AC360B934D4B0E201B680C930BA903F0E0
:1019F80067FD4FF48053A5F8A636092385F8893684
:101A080003F0ACFF03F0C0FC1DE094F8B036002BE7
:101A1800F6D0414B1B689B01F2D43B4B082283F85C
:101A28008926EFE73E4B1A68D4F89C36C8339A42A9
:101A380005D909F07DFE012384F8893603E009F011
:101A480091FE0028F5D109F05DFEB8B3012384F8B2
:101A5800893633E009F086FE0028F4D04FF480532D
:101A6800A4F8A6360923E7E7BCF80E80B7F806E025
:101A7800CEEB080A564502DDC644764516DBBCF8AF
:101A88000EE0B3F900807645CBBFB7F802E0B1F8B5
:101A980004E0B1F802A0B7F800A0F045FFF6FAABF1
:101AA800D045C646A8BFD646FFF7F4BB4645CCBFCF
:101AB800B7F802E0B7F800E0FFF7ECBB13B0BDECF5
:101AC8000E8BBDE8F08F00BFB4260108CE260108B2
:101AD800E3260108EB260108FF2601080B27010869
:101AE8001427010825270108841B00202F27010837
:101AF8003E270108C01500204D27010800000020DE
:101B08005D270108672701081005002074270108D0
:101B18008D27010898270108EC0C0020100C0020E4
:101B28000C1800202DE9F04FB14D2DED028B2C78CB
:101B3800A3B0002C00F08280AE4F3B68002B01F070
:101B48000585386803685B689847002801F0FE84BB
:101B5800A84BA94C18680368DB689847092801D086
:101B68003F2854D14FF0000AD4F80090A34ED04635
:101B7800B9F1000F05D0A24831684A460EF05EF868
:101B880020B9B246B8F1000F00D1B0469D4B1036CF
:101B98009E42EDD3B8F1000F18D0D8F800E0DAF87B
:101BA80000C023681EF803601CF80300B0420DD182
:101BB8005A1C934938B92D2B05D88F4E32602026F0
:101BC800CE54885402E0CE542260EAE723680BB171
:101BD800D04511D08C4809F0F5F8D04507D858F809
:101BE800100B09F0EFF8092009F0E4F8F5E7874849
:101BF80009F0E8F84FF0000923689945A1D2804B15
:101C080013F8090009F0D6F809F10109F4E7236887
:101C1800002B41F02084042841F07D84784804F0AA
:101C28001FFA01F093BC08F015FD05F095FF784BFD
:101C3800784ADA604C34982C01F08884764AA318E4
:101C480093F84A100129F5D1744FA2583B60744BA0
:101C5800B9461A609846D8F80000DFF8C4B103689E
:101C68005B689847002800F03D87DBF800000368B0
:101C7800DB689847D9F8003093F8482006461AB927
:101C880024283AD1012205E0012A06D14D2814BFA3
:101C98000022022283F8482057E0022A04D13C2877
:101CA80014BF00220322F5E7032A0AD140284FF087
:101CB80000029FBF1A71DA715871987198BF042297
:101CC800E8E7042A06D19A7983F8490056409E71BC
:101CD8000522DFE7052A38D159791A79914299798D
:101CE80006D941409971511C1971134418722CE09E
:101CF80081420CBF06220022CCE7DFF840A19AF807
:101D080000305B0721D42328DBF8003011D10122F1
:101D18002A70384A43481360434A136009F052F85E
:101D28003A4809F04FF89AF8003043F002038AF86D
:101D380000303E4B1B681B78B34201BF3C4B3D4A09
:101D48001A60334B04BF334ADA60D9F8002092F89E
:101D5800480006287FF47FAF92F84930492B00F0FD
:101D6800098400F20781322B00F0548600F28D803E
:101D7800222B00F0198522D8032B00F0C78113D835
:101D8800012B00F0B881022B40F0D586042008F022
:101D98007DFF422008F049FF542008F046FF462006
:101DA80008F043FF4C20BBE1042B00F0BD81052B5C
:101DB80040F0C1861A2008F069FF0026C5E1282BEB
:101DC80000F0E8853CD8242B00F0CA85262B40F08B
:101DD800B286194E062008F059FFB6F8580108F0E7
:101DE80058FFB6F85A0108F054FFB6F85C01BEE295
:101DF8005B2300204418002008100020BC0C0108B8
:101E0800D80F00206C0E01085C2801086128010821
:101E180000ED00E00400FA05EC1A00203C18002050
:101E28004018002091280108C40B00201C10002035
:101E3800FC9F0020EFBEADDE841B00205F23002046
:101E48002A2B00F0BA852C2B40F07586D34E0C2037
:101E580008F01CFF96F88E0108F0E7FEB6F8980126
:101E680008F017FFB6F8940108F013FFB6F89601CA
:101E780008F00FFF96F88F0108F0D7FEB6F89C011E
:101E880008F007FFB6F89E0171E23D2B00F067836A
:101E980023D8382B00F06A8512D8342B00F0A6849A
:101EA800362B40F04886BE4BBC4E93F83800C0EB4A
:101EB800C000C0B208F0EAFE06F1100700F0C7BD86
:101EC8003A2B00F0F5823B2B40F03586012008F0D4
:101ED800DDFEB44B1B68187822E1452B00F0D9854C
:101EE80026D8402B00F09E85422B40F02486AB4E2E
:101EF800102008F0CBFE707908F097FEB06808F063
:101F0800D1FE96F88E0108F090FEB6F8580108F058
:101F1800C0FEB6F85A0108F0BCFEB6F85C0108F03D
:101F2800B8FEB6F87E0108F0B4FEB6F880011EE2ED
:101F3800462B00F09585472B40F0FD8508F06CFE98
:101F48000746842008F0A2FE384608F0ABFE964B00
:101F5800DE6807F18003B3428CBFF61B802603F0CE
:101F680031FA3846324602A907F03AFE00260746FB
:101F780000F087BD6F2B00F0038346D8672B00F075
:101F8800F98127D8642B00F0F98011D84B2B00F089
:101F98001B854D2B40F0CF85844E854F307800EB64
:101FA8004000C0B208F072FE4FF0000800F01BBD00
:101FB800652B00F00981662B40F0BD85122008F0E2
:101FC80065FE7C4B1B88B3F5806F8CBF0827012703
:101FD8000026B0E16C2B00F055820ED8682B00F07B
:101FE8003A82692B40F0A785704F3878400000F09E
:101FF800FE0008F04BFE002639E26D2B00F05182FE
:102008006E2B00F0598200F096BD772B00F06884A3
:102018004CD8732B00F086843DD8702B00F0DD82FD
:10202800722B40F088855D4E162008F02FFEB6F81A
:10203800940108F02EFEB6F8400108F02AFEB6F822
:10204800420108F026FEB6F8440108F022FEB6F870
:10205800D80108F01EFE002008F0E7FD002008F077
:10206800E4FD002008F0E1FD96F8830108F0DDFDAD
:1020780096F8900108F0D9FD002008F0D6FD494BEC
:102088001B680A20B3F9623093FBF0F080B208F0C5
:1020980000FE00F06FBC742B00F0CD83752B40F070
:1020A8004A852F2008F0F2FD434E75E3A02B00F07F
:1020B80049840AD8782B00F069817B2B40F03B8556
:1020C8003C2008F0E3FD002610E3F12B00F09D8191
:1020D800FE2B00F03284F02B40F02D85314E042089
:1020E80008F0D4FD3368B3F8660008F0D2FD336811
:1020F800B3F864003BE1032008F0C8FD002008F0B5
:1021080094FD012008F091FD0D2009E0184608F023
:10211800BDFD022008F089FD022008F086FD0020A0
:1021280008F083FD00F0D5BC062008F0AFFD432081
:1021380008F07BFD432008F078FD332008F075FD9A
:10214800442008F072FD012011E11C4B985D013616
:1021580008F06BFD0B2EF8D10026194B985D01365F
:1021680008F063FD082EF8D10026164B985D01365D
:1021780008F05BFD072EF8D100F0ABBC072008F093
:1021880085FDE72008F051FD044B587908F04DFD16
:10219800002008F04AFD042000F08ABC841B0020BF
:1021A800C40B00200C1000203C00002094220020CA
:1021B800241D002000000020DB0A0108FF2601087A
:1021C8000B270108E32601080B2008F05FFDCF4B21
:1021D800188808F05EFD002008F05BFDCC4B1B68FA
:1021E800C3F3C000C3F38002800040EA4200C3F397
:1021F80040021043C3F3401240EAC20003F0100348
:10220800184308F046FDC34B1A88C34B1B6812F0ED
:10221800010F02F0080103F4475B14BF4FF00209F5
:102228004FF000094BEA010B12F0020F03F4804152
:1022380014BF4FF004084FF000084BEA010B12F0EE
:10224800040F03F4004114BF4FF0100C4FF0000CC2
:102258004BEA010B12F0400F03F4803114BF4FF02A
:10226800200E4FF0000E4BEA010B12F0100F03F492
:10227800003103F4802A14BF4FF4007700274BEA9B
:10228800010B12F0200F4BEA0A0B14BF4FF48066C3
:10229800002603F4002112F4807F4BEA010114BFE9
:1022A8004FF40060002003F4801B12F4007F41EA21
:1022B8000B0B14BF4FF4001100210191974903F053
:1022C800007A097803F000634BEA0A0A4AEA030A2B
:1022D800C1F380014AEA010A4AEA090949EA0808F9
:1022E80048EA0C0C4CEA0E0E4EEA07073E43019BE7
:1022F80012F4806F40EA060040EA030018BF4FF06E
:102308008062874B08BF0022024300201E790346E3
:10231800B3420AD283495F5C012101FA07F71742E9
:102328001CBF994008430133F2E708F0BBFC7E4B21
:1023380093F8D806F4E67D4B33F9160090FBF7F0D6
:10234800013680B208F0A5FC032EF4D1784E30880F
:1023580008F09FFC708808F09CFCB08808F099FC95
:10236800002008F096FC002008F093FC002008F0FC
:1023780090FCAEE3102008F089FC00266D4B985DB8
:10238800013608F052FC102EF8D1A2E3702008F0B4
:102398007DFC4FF00008684F0E263B6806FB08F6E8
:1023A800334408F10108B3F8250108F072FC3B68D2
:1023B8003344B3F8270108F06CFC3B683344B3F8A6
:1023C800290108F066FC3B68334493F82B0108F0B8
:1023D8002CFC3B68334493F82C0108F026FC3B683E
:1023E800334493F82D0108F020FC3B68334493F8FC
:1023F8002E0108F01AFC3B681E44D6F82F0108F09D
:1024080051FCB8F1080FC6D163E37020464E08F0BE
:102418003DFC06F1700796F8D00008F006FC96F827
:10242800D10008F002FC96F8D20008F0FEFB96F8FE
:10243800D30008F0FAFB96F8D40008F0F6FB96F8FB
:10244800D50008F0F2FB073696F8CF0008F0EDFB50
:10245800BE42E0D13DE3102008F018FC0026374BBF
:10246800985D013608F0E1FB102EF8D131E33B7896
:102478009E4280F02E83324B33F8160008F009FC98
:102488000136F4E72F4E08F001FC308808F001FC13
:10249800708808F0FEFBB6F904300A2093FBF0F0D0
:1024A80032E0062008F0F2FB002008F0FBFB5DE7B5
:1024B800042008F0EBFBFAE2072008F0E7FB224BC8
:1024C8001888FF28A8BFFF20C0B208F0AEFB1F4B3A
:1024D80018684FF6FF76B042A8BF304620EAE07091
:1024E80080B208F0D6FB1A4B188808F0D2FB0E4BC6
:1024F80093F88321174B186872B30A235843B042E4
:10250800A8BF304620EAE07080B230E75C180020AF
:102518004C1800203E140020EC0C00205F23002003
:10252800C40B0020C90B0020841B0020E60B0020F0
:10253800AE140020EC0B00200C100020D415002055
:10254800A0220020A8140020A80F00202019002095
:10255800F00C00201419002000F30F00D4E7CA4E35
:10256800022008F093FB96F8E00108F05EFB96F86D
:10257800DF01D5E5022008F089FBC44B1888F6E690
:10258800C34E0B2008F082FB3368187808F04DFB27
:102598003368587808F049FB4FF0000837463B6825
:1025A800BB4E434408F10108187908F03EFBB8F126
:1025B800030FF4D13368D87908F037FB336898787B
:1025C80008F033FB3368D87808F02FFB3368588954
:1025D80008F05FFB3368187AA2E5AE4E1E2008F0BB
:1025E80055FB33681B78022B4FF000076BD133681B
:1025F80003EB870393ED080AB2EE048A20EE080A7B
:102608000DF0DEFC80F30800C0B208F00EFB336862
:10261800DFEDA17A03EB870393ED0B0A20EE270A7F
:102628000DF0CEFC80F30800C0B208F0FEFA336863
:10263800DFED9A7A03EB870393ED0E0A20EE270A63
:102648000DF0BEFC80F30800C0B2013708F0EDFAC7
:10265800032FCCD1072F336823D193ED110A20EE35
:10266800080A0DF0ADFC80F30800C0B208F0DDFAEE
:10267800336893ED120A20EE080A0DF0A1FC80F3EE
:102688000800C0B208F0D1FA336893F84C3000EE75
:10269800103AB8EE400A0DF093FC80F30800C0B27F
:1026A8000BE03B44587808F0C0FA33683B44D87ACA
:1026B80008F0BBFA33683B44587D013708F0B5FA97
:1026C8000A2FC7D105E233683B44587808F0ADFAC1
:1026D80033683B44D87A08F0A8FA33683B4401379A
:1026E800587D08F0A2FA0A2FEDD1F2E1694F9FED6B
:1026F8006B8A3B6803EB860393ED080A20EE080A11
:102708000DF05EFC80B208F0C4FA3B6803EB860368
:1027180093ED0B0A20EE080A0DF052FC80B208F087
:10272800B8FA3B6803EB860393ED0E0A20EE080A1D
:102738000DF046FC013680B208F0ABFA032ED5D175
:10274800072E3B6816D193ED110A20EE080A0DF00A
:1027580037FC80B208F09DFA3B6893ED120A20EE30
:10276800080A0DF02DFC80B208F093FA3B6893F844
:102778004C000BE03344587808F08BFA3B6833443C
:10278800D87A08F086FA3B683344587D013608F059
:1027980080FA0A2ED4D19CE116F8010F002800F027
:1027A800988108F042FAF7E7502008F06FFA0027FE
:1027B800384B1E683A4B06EB87060C2196F88520A5
:1027C80001FB0233013793F8380008F02EFA96F827
:1027D800860008F02AFA96F8870008F026FA96F894
:1027E800880008F022FA142FE2D172E1482008F09C
:1027F8004DFA0027274B1E68062303FB076601379F
:1028080096F8DA0008F011FA96F8D50008F00DFAF3
:1028180096F8D60008F009FA96F8D70008F005FAF5
:1028280096F8D80008F001FA96F8D90008F0FDF9F2
:102838000C2FDFD14DE100264FF001094FF0000ABF
:10284800184B1A79924541DA05334FF0000B1AF804
:102858000310134A0C2302F1300003FB0BF39046DC
:10286800185C884209D11344586B0DF0DEF9024612
:10287800B9F1000F18D14F4618E00BF1010BBBF16D
:102888001D0FE6D11FE000BF841B0020FC170020AD
:10289800DC1700200C1000200000C84200007A4419
:1028A800DC0A0108C40B002006440CE097420ADA4F
:1028B8000C2303FB0B8301925B6BD85D08F0B5F921
:1028C8000137019AF2E70AF1010AB9E7B9F1000FF5
:1028D80000F0FF80F0B208F0D9F94FF00009ADE739
:1028E800C54F387908F0D2F900263B799E4280F02E
:1028F800F080C24B16F803E00021C1480C2200F119
:10290800300C02FB01F313F80C20724505D1034487
:1029180093F8380008F089F902E001311D29ECD15B
:102928000136E2E7082008F0B1F90126F0B20136D5
:1029380008F07BF9092EF9D1CBE0082008F0A6F9B8
:1029480000200BE50C2008F0A1F9AE4B186808F040
:10295800A9F9AD4B186808F0A5F9AC4B1868A7E0C1
:10296800042008F093F9AA4B9868A1E0042008F025
:102978008DF9A74E96F8780108F057F996F87C017A
:1029880008F053F996F87B0108F04FF996F87D01A5
:10299800FFF7C6BB9E4E072008F078F9B6F87E010F
:1029A80008F077F9B6F8800108F073F996F8820113
:1029B80008F03BF9B6F88401D9E4012008F066F97B
:1029C800934B5879FFF7ACBB914E042008F05EF9A1
:1029D80096F8D60108F029F996F8D70108F025F9F4
:1029E800B6F8D801C3E43378984507F1020770D2E6
:1029F80017F8020C08F019F917F8010C00EB800021
:102A080000EB800000F2EE2080B208F042F908F1F5
:102A18000108E8E7012008F039F97D4B93F89001A7
:102A2800FFF77EBB082008F031F90026784B3344C5
:102A3800013693F8860108F0F8F8082EF6D148E038
:102A480092F90C209A425FD00836BE4241D0714AB2
:102A580096F8F00192F9001043B29942F0D153E090
:102A68006D4E0D2008F012F906F0A8FF08F0DDF809
:102A7800308808F017F9F06808F014F903F096F9AF
:102A880016E0BE4225DA02AB985D08F0CEF80136B2
:102A9800F7E7132008F0FAF80026604B985D013636
:102AA80008F0C3F80B2EF8D1002008F0FBF800203E
:102AB80008F0F8F80DE0D42B00F0B483D22B40F0E6
:102AC800C684574B1B785F0740F1F183002008F05C
:102AD800DDF8544E3368987908F0A7F83368002277
:102AE80083F84820444B93F83C30002B3FF4A2A8CD
:102AF8004D4BE658304604F0A1FC00287FF493A81B
:102B08000A2004F02EFAF5E708F08FF8B6F8F2017B
:102B180008F0BFF896F8F40108F087F896F8F50180
:102B280008F083F896F8F70108F07FF896F8F601B0
:102B380008F07BF888E74A2BC8D000F29C81352B37
:102B480027D108F053F80B28074602D90AF0E0F914
:102B5800BCE7364B1E6808F049F80328F6D8062368
:102B680003FB076686F8DA0008F040F886F8D50017
:102B780008F03CF886F8D60008F038F886F8D70050
:102B880008F034F886F8D80008F030F886F8D9004C
:102B98009CE700F2C480292B11D108F033F81C4EB1
:102BA800A6F87E0108F02EF8A6F8800108F01EF8B5
:102BB80086F8820108F026F8A6F8840186E779D815
:102BC800252B08D1124E0023B36008F025F8B3680E
:102BD8001843B0607AE7272B2AD108F013F80C4E77
:102BE800A6F8580108F00EF8A6F85A0108F00AF8F5
:102BF800A6F85C016AE700BFC40B0020C90B0020DF
:102C0800DC0A0108ACF7FF1FB0F7FF1FB4F7FF1F7E
:102C1800841B0020B41A00203C000020FF26010875
:102C28005F2300203C180020EC1A00200C10002024
:102C3800232B40F00C8407F0D9FF1328074685D8CA
:102C4800DFF88483D8F8006007F0D0FF00210C2259
:102C5800DFF894E302FB01F30EEB030292F838204D
:102C6800824223D173443FB206EB870693F8303093
:102C780086F8853007F0BAFF86F8860007F0B6FFB9
:102C880086F8870007F0B2FFCA4BCB4A1A6086F86D
:102C98008800CA4BD8F8000018600021853004F07D
:102CA80083F8C74B80F0010018700FE701311D2928
:102CB800CDD14BE72D2B22D107F098FFC14E86F8D6
:102CC8008E0107F09FFFA6F8980107F09BFFA6F872
:102CD800940107F097FFA6F8960107F087FF3B6875
:102CE80086F88F015B79082B7FF6F0AE07F08AFF34
:102CF800A6F89C0107F086FFA6F89E01E6E6332BAE
:102D080005D107F073FFAF4B83F89001DEE62B2B5C
:102D180040F09D8307F06AFFAA4B5871D6E63E2B18
:102D280009D107F063FFA74E86F8E00107F05EFFC0
:102D380086F8DF01CAE65CD8392B11D107F056FFB7
:102D4800A04E86F8780107F051FF86F87C0107F05D
:102D58004DFF86F87B0107F049FF86F87D01B5E64F
:102D68003C2B13D1984E376807F040FF18B1022862
:102D7800A8BF022000E00120387033681B78022BBE
:102D8800924B14BF924A934A1A609FE6372B40F041
:102D98005E8353790726B3FBF6F2C2EBC2029A1A96
:102DA80012F0FF0F7FF4D2AEB3FBF6F6013EF6B297
:102DB800FF2E3FF48BAE07F019FF5FFA80F84FFA49
:102DC80088F003F023FF074600283FF4BFAE80F8E1
:102DD800008007F017FF788007F008FF387107F0C8
:102DE80005FF787107F002FFF87107F0FFFEB87170
:102DF800DCE7432B23D107F0F9FE724E0023B360C2
:102E0800707107F009FFB3681843B06007F0EEFE71
:102E180086F88E0107F0F6FEA6F8580107F0F2FED4
:102E2800A6F85A0107F0EEFEA6F85C0107F0EAFEE4
:102E3800A6F87E0107F0E6FEA6F8800146E60DD862
:102E4800412B40F00483002607F0D0FE5D4B33444D
:102E58000136082E83F88601F6D137E6442B04D1D3
:102E68005D4B012283F83C2030E6482B40F0EF828E
:102E780006F08AFE2AE6D02B0BD1584B1B78580750
:102E88003FF524AE08F0C4F904F090FE04F04CFFBE
:102E98001CE600F2B281CA2B40F0A8804A4E336883
:102EA8001B78022B4FF000076AD1D6F8008007F094
:102EB8009DFE07EE900AF8EE677AB2EE048AC7EE36
:102EC800887A08EB8708C8ED087AD6F8008007F0FA
:102ED8008DFE07EE900A9FED427AF8EE677A08EBCE
:102EE8008708C7EE877AC8ED0B7AD6F8008007F016
:102EF8007DFE07EE900A9FED3B7AF8EE677A08EBC5
:102F08008708C7EE877A0137032FC8ED0E7ACCD130
:102F1800072FD6F800801CD107F068FE07EE900A4C
:102F2800F8EE677AC7EE887AC8ED117AD6F800808D
:102F380007F05CFE07EE900AF8EE677AC7EE887A2B
:102F4800C8ED127AD6F8008007F050FE88F84C00D9
:102F580012E007F04BFEB84488F80100D6F800806C
:102F680007F044FEB84488F80B00D6F8008007F054
:102F78003DFEB84488F8150001370A2FC8D1A5E5E9
:102F8800D6F8008007F032FEB84488F80100D6F879
:102F9800008007F02BFEB84488F80B00D6F80080B4
:102FA80007F024FEB84401370A2F88F81500E7D146
:102FB8008CE500BF4C0D0020C41C0020500D0020E3
:102FC80004000020841B00200C1000208C0200202C
:102FD8003D9C0008359F0008C40B00205F2300209B
:102FE8000000C84200007A44DC0A010865D84E2B6C
:102FF80029D153790326B3FBF6F6122E3FF6A6AD78
:10300800B84F4FF00008B045BFF460AD07F0EEFDD3
:1030180087F8A00107F0F6FD40F2ED23984205DDA0
:1030280040F6CA039842A8BF184601E040F2EE20D5
:10303800A0F2EE20192308F1010890FBF3F0023703
:1030480087F89F01DFE7C82B26D156797608122E1C
:103058003FF67CAD0027B74206D207F0D3FD02AB9E
:1030680023F817000137F6E732460023B34207DAA0
:1030780002A931F813009C4921F813000133F5E740
:10308800122A05D0984B002123F812100132F7E7D5
:10309800964B01221A7019E54C2B40F0D88107F0A5
:1030A800A5FD904E86F8D60107F0A0FD86F8D70159
:1030B80007F0A8FDA6F8D80108E5CD2B09D18C4B5F
:1030C8001B7859073FF502AD8A4B4FF4C8721A8036
:1030D800FCE44BD8CC2B40F0BA815379092B7FF60E
:1030E80035AD854ED6F8008007F080FD88F80000E1
:1030F800D6F8008007F07AFD88F8010007F076FD21
:1031080033686428A8BF6420187107F06FFD33681E
:103118006428A8BF6420587107F068FD3368FF2849
:10312800A8BFFF20987107F061FDD6F800806428D9
:1031380028BF642088F8070007F058FD88F80200C7
:10314800D6F8008007F052FD88F80300D6F8008012
:1031580007F058FD3B68A8F80A005B790A2B7FF650
:10316800B5AC366807F042FD3072AFE4CE2B0AD119
:103178005F4B1B785A073FF5A9AC604A137843F0B8
:1031880004031370A2E4CF2B40F0618107F03AFDED
:103198006FF4AF6683199BB2524EC62B98BFA6F840
:1031A800940107F02FFDA6F8400107F02BFDA6F8C3
:1031B800420107F027FDA6F8440107F023FDA6F811
:1031C800D80107F013FD07F011FD07F00FFD07F018
:1031D8000DFD86F8830107F009FD86F8900107F0D8
:1031E80005FD474B1F6807F00DFD00EB8000400010
:1031F800A7F8620007F0FAFCA3E5D62B09D1002650
:1032080007F000FD3F4B23F816000136082EF7D1D2
:103218005CE458D8D32B7FF44EAC07F0F3FC3A4B60
:10322800588753E453790F2B7FF490AC07F0DEFCFA
:10323800072806463FF68AAC314FD7F8008007F0DA
:10324800E1FC0E235E43B044A8F82501D7F80080BE
:1032580007F0D8FCB044A8F82701D7F8008007F099
:10326800D1FCB044A8F82901D7F8008007F0BEFCCB
:10327800B04488F82B01D7F8008007F0B7FCB044B9
:1032880088F82C01D7F8008007F0B0FCB04488F823
:103298002D01D7F8008007F0A9FCB0443F6888F8F2
:1032A8002E0107F0B9FC3E44C6F82F010EE407F0E2
:1032B8009DFC0C4B022883F8D8067FF6E5AD00226A
:1032C80083F8D826E0E5EF2B20D10D4E376807F0BC
:1032D80099FCA7F86600366807F094FCA6F8640025
:1032E800FFF7F4BB841B00209C170020FD1800206A
:1032F8005F230020100D0020DC170020000D0020A7
:103308000C100020E0170020C40B00206CD8D82B2C
:1033180040F09D800026904F9FED908AD7F800805E
:1033280007F070FC07EE900AF8EE677A08EB86085B
:10333800C7EE887AC8ED087AD7F8008007F062FCF3
:1033480007EE900AF8EE677A08EB8608C7EE887AE7
:10335800C8ED0B7AD7F8008007F054FC07EE900A06
:10336800F8EE677A08EB8608C7EE887A0136032EEE
:10337800C8ED0E7ACFD1072ED7F800801CD107F000
:1033880041FC07EE900AF8EE677AC7EE887AC8ED36
:10339800117AD7F8008007F035FC07EE900AF8EEAE
:1033A800677AC7EE887AC8ED127AD7F8008007F0F6
:1033B80029FC88F84C0012E007F024FCB04488F897
:1033C8000100D7F8008007F01DFCB04488F80B0016
:1033D800D7F8008007F016FCB04488F815000136CD
:1033E8000A2EC8D1FFF772BBF22B29D107F0FEFBDA
:1033F8000F2806463FF6AAAB07F0F8FB584BC6EB7A
:10340800C6061E4486F8D00007F0F0FB86F8D10007
:1034180007F0ECFB86F8D20007F0E8FB86F8D3004B
:1034280007F0E4FB86F8D40007F0E0FB86F8D50047
:1034380007F0DCFB86F8D60007F04CF9FFF746BB2F
:10344800FA2B04D1474B1B785B077FF51DAD09F0BC
:103458005FFDFFF73EBB0C2803D1434807F0B2FCE1
:103468004BE00A2801D00D2849D1404E404807F0CA
:10347800A9FC304623210CF0CAFB08B1801B206050
:10348800236893B35A1EB15C202901D11346F8E78B
:10349800364A23600021D154364B374ED3F800A06A
:1034A800D6F800B0DFF8C49058460CF0BEFB804652
:1034B8004246484659460CF0C1FB304A28B919F82B
:1034C800083053445B78590703D010369642E7D347
:1034D80007E0964205D208F10100F368484498478E
:1034E80002E0274807F06EFC0023204823600021F3
:1034F80030220CF056FB2B7843B3224807E07F2894
:103508000FD1013B194A204823600021D15407F00C
:1035180059FCFEF716BB0C289FD07F2804D1FEF774
:1035280010BB2F2B3EF60DABA0F12002D2B25E2AC3
:103538003EF607AB13B920283EF403AB5A1C2260B1
:103548000A4AD05407F036FCFEF7FBBA23B0BDECAC
:10355800028BBDE8F08F00BF0C10002000007A44F9
:10356800841B00205F23002066280108D80F002054
:10357800F333010898020020BC0C01086C0E010806
:1035880071280108612801088D2801082DE9F04FEC
:10359800864C226802F59C432DED028B2033636034
:1035A800834B1E7887B0C6B1824909688A4240F2C7
:1035B8002081013E1E701CE17F4F80483B68072D2B
:1035C80098BF595D7E4B88BF29461B689847032DD5
:1035D80009D904EB45050136288107F081FAF5B2CF
:1035E8008542E9D31FE03A6805F10E0302EB830335
:1035F800D9881A890028ECD04FF47A73401A5843B6
:10360800531A90FBF3F040F6C90300F57A7098421C
:1036180005DC40F2EE239842B8BF184601E040F6B8
:10362800CA0080B2D5E7674B674F1B68D7F80080A0
:1036380042F2010903EA0909B9FA89F94FEA591965
:10364800B9F1000F06D194F82D3084F82C305F4B77
:103658005A781A7094F82C601EB15C4B1E7886F06C
:1036680001060F23DFF878A184F82E30002507F033
:1036780037FA854264DA4FEA450B1EB1544B33F8EA
:10368800150000E030464C4BDFF858E11968CB8A4A
:1036980083424FEA85024F4B02D8098B814219D2E7
:1036A8005EF802204149904502D233F80B0015E03C
:1036B800E8B28DE80A0007F027FA032D019B0DDC1C
:1036C8000099012291F82EE0AA402EEA020281F820
:1036D8002E2003E008F596714EF80210B9F1000F9C
:1036E80028D194F8C0100322B1FBF2F202EB420297
:1036F8008A1A0BEB050E5EFA82F204EB4202108680
:1037080094F8C1202AB9022914D9284A012182F83B
:10371800C110BAF800203AF8020C1044BAF8022096
:1037280010442D4A80B222F80B0000B2032290FB0D
:10373800F2F080B223F80B0001350AF1060A96E789
:1037480094F82E20254BA2F10F067242724184F89C
:10375800DA2072B1154AD2F8DC20550109D43A684A
:10376800D9689A60521AC82A3ED9012283F82120C2
:103778003AE0164A0121517011703A689968DA6086
:103788005B68521A9A4282BF144B002283F82120A8
:10379800002507F0A5F9854226DAE8B207F0B4F962
:1037A8000C4B23F815000135F3E700BF100C00207F
:1037B8000818002004180020001800209422002077
:1037C800380200209C2200200C1800200200002053
:1037D800180C0020A0220020D20C00201018002075
:1037E800420C0020880C002094F8C030013384F883
:1037F800C030AD4F3B68D80405D5D4F8DC30D907C4
:1038080001D408F029FEA94B1A68937A2BB3013B1F
:10381800A749127B31F813301AB1C3F53B6308335B
:103828009BB21BB2A3F57A73B3F57A7FA8BF4FF4A6
:103838007A7323EAE37307EE903A9FED9E7AF8EEE7
:10384800E77AC7EE877A9FED9C7A67EE877AFCEE77
:10385800E77A17EE903AA4F8E0303B68974E13F4F5
:10386800807F00F0E9802268954B964D9A4203D9F3
:10387800AB780BB90123AB70AB78002B00F0DC8080
:10388800904B96F8009093F82180D4F8DC3008F13A
:10389800FF32D2F1000848EB0208B8F1000FC9F373
:1038A8008009C3F3806A14BF4FF0000B4FF0030B7D
:1038B80095F82030052B00F2B980DFE803F0034DBE
:1038C800537986A2B9F1000F39D0D4F8E400B4F8DE
:1038D800E81003F07AFA012808D17B4A7B4B12687A
:1038E8001B68D288642101FB02332B61BAF1000FF7
:1038F8000CD0754B1B681B7943B106F08DFF032371
:1039080085F820304FF47A73EB61D1E7B8F1000FF6
:1039180040F08C806D4B2A6919686A4B91420AD92C
:10392800009306F079FF009B032283F8202040F6DD
:10393800B832DA61BCE7012283F82020B8E74FF4F7
:103948008060BAF1000F02D004F0EEF801E004F054
:10395800DBF800232B6169E0B8F1000F48D106F0CD
:103968005BFFA5E7B8F1000F04D0052385F82030E8
:10397800012100E04146B9F1000F0CD0D4F8E43041
:10398800DA894B4B1A805A809A804F4A12685288BB
:10399800DA804FF0020B4D4B1A686B699A4202D8D5
:1039A800B9F1000F3FD147F23053EB61032320E018
:1039B800337843F00203337008F04EFD434BEA6955
:1039C8001B681344AB61042313E0404BB8F1000FAC
:1039D80012D01A68AB699A4228D93D4B9B781BB91B
:1039E800D4F8DC30DB0721D4337823F002033370BA
:1039F800052385F820305BE71B68EA691344AB614F
:103A080014E0314A314B12681B68D288642101FBEB
:103A180002332B614FF48060002385F82030EB706F
:103A280004F072F844E700297FF442AFBBF1000FBD
:103A380002D0584603F020FA264DDFF89480B5F8F6
:103A48004E1105F5C37003F0C0F98246002845D130
:103A5800D4F8DC3013F0006909D098F8033033B992
:103A680009F036FA1C4B012818BF0020187033786B
:103A7800580709D53B68D90606D4B9F1000F03D019
:103A880098F80330002B4BD0104B1B6803F57A7362
:103A98000122C4F8EC30104B88F8042088F8032081
:103AA80000221A703CE000BF9C2200200018002071
:103AB800A022002000007A4400C07F445F23002039
:103AC800404B4C0010180020981700200C180020BC
:103AD80002000020841B0020612300203B68DA06D6
:103AE80018D433785B0715D5D4F8DC30180111D514
:103AF80098F8033073B1AE4B1A68AE4BD3F8EC307C
:103B08009A420AD909F0E4F938B9AB4B88F80300AE
:103B1800187002E0A84B00221A70002388F80430BD
:103B2800337859073AD53B68DA0637D594F8F03038
:103B3800DFF88092DB0631D498F8023043B395F869
:103B4800E031BAF1000F11D15BB1994B1A68D9F87D
:103B5800F4309B1A002B04DA08F07EFC89F8F8A0F0
:103B68001CE0102003F088F901230EE03BB1904AD5
:103B780012684FF47A7101FB0323C9F8F43094F802
:103B8800F8305BB103F066F9002384F8F83005E0FB
:103B9800BAF1000FE5D099F8F830F2E7002295F86D
:103BA800DE9195F8DF11B5F896E1B5F898C113469E
:103BB800DFF810B2CDF808B03BF912009B08704549
:103BC800C4BF63F07F03DBB201326045B8BF43F086
:103BD8004003042AECD194F8F92076489A4205D19A
:103BE80090F8FA20F92A04D8013200E0002280F87F
:103BF800FA2084F8F93098F802306E4A33BBD2F8CC
:103C0800DC00C0070AD582F8FB30BAF1000F1DD1DD
:103C18003378DB071AD508F029FA17E03378580704
:103C280014D592F82C308BB1644BDB7873B992F8C9
:103C3800FB300133DBB2032B82F8FB3006D911B11C
:103C480008F00AFC02E0BAF1000FF9D094F8FA3053
:103C5800DFF860B1DFF870A1142B7BD198F802303F
:103C680019F1000918BF4FF001094BB39BF8F9305F
:103C78005F2B0FD1337803F0040303F0FF0213B175
:103C880008F0EAFB06E00B20009203F0F5F8009A32
:103C98008BF8FA20B9F1000F12D094F8F9307D2B87
:103CA8000ED1337803F0040303F0FF0B13B108F0CF
:103CB800D3FB05E00B2003F0DFF83E4B83F8FAB0A6
:103CC800337803F0040303F0FF02002B42D194F889
:103CD800F9B0384BBBF1570F04D1394B4FF47A7216
:103CE8001A8037E03968490718D5BBF15A0F15D142
:103CF80093F8FC1029B183F8FC20012283F8FD20F9
:103D080028E093F8FE2082F0010283F8FE200AB131
:103D18000C2000E00D2003F0AFF81BE0BBF15D0FB5
:103D280000F02D84BBF15B0F00F02B84BBF15E0F1C
:103D380000F02984BBF1560F01D104F0A9F998F8D5
:103D48000230002B00F0EC83BBF16F0F40F0E183F1
:103D580008F08CF93B68580746D594F8FE30154AA8
:103D68009BB13378590710D5029BB3F90610B5F803
:103D78009631994209DDD2F8DC3013F0010302BF15
:103D88003221A2F8021182F8FE30D4F8DC20094B67
:103D9800D2031BD593F804212AB993F8FC2012B951
:103DA8003222A3F80221012384F804311CE000BF69
:103DB8000C180020100C002061230020101800208F
:103DC80058230020A02200200C10002093F8FC208B
:103DD80052B1327802F0040202F0FF0122B9012246
:103DE80083F8FC1083F8FD20DAF800800023C4F87B
:103DF800DC3008F1870608F1D7093278737816F8AD
:103E0800010C9A420DD2314602F094FF48B116F8DF
:103E1800022C012303FA02F2D4F8DC301343C4F86D
:103E2800DC3004364E45E8D1CB4B1B7833B1D4F89F
:103E3800DC8018F0020F40F02D8325E308F1D60648
:103E480008F58F783278737816F8010C9A4225D2E3
:103E5800314602F06FFF08B3B37896F804C0BF4A42
:103E680096F80390BE480C21013B01FB0C4103EB83
:103E780043031344D1F80C219A420FD0C1F80C31F6
:103E8800002390F83821C1F81031012303FA0CF30C
:103E980022EA030381F8089180F83831063646454E
:103EA800D0D1B04BDFF8C4B21E68AF4B1B6801938A
:103EB80094F82C30039300230093DBF80020002AA9
:103EC80000F0D98292F80090B9F1000F00F0D38287
:103ED800DBF804300199CB1A002B0CDB01F5FA73DF
:103EE8000099CBF8043001238B4094F8381121EA6B
:103EF800030384F83831039B002B00F0BC821BF8C5
:103F0800043C51780433DBB2002940F073820299F3
:103F180031F91310B5F8943103F1C800814202DD7C
:103F280092F802A015E0C83B994203DA9178C1F1F2
:103F3800000A0EE0009A0123934094F8382122EAFF
:103F4800030384F83831019B03F5FA73CBF8043086
:103F580091E294F83831009A1341D80700F18B8226
:103F6800BAF1000FCCBF0220012002F0BBFF09F11B
:103F7800FF33DFF8EC81132B00F27582DFE813F0D2
:103F88001400250037004B0064006B00CE0043018D
:103F9800AA01D801080273024B005A006B00CE0038
:103FA8004301A00015017A0196F80080D044B8F1C9
:103FB800FA0FA8BF4FF0FA0828EAE878304686F8E2
:103FC800008002F09DFE01200FE096F80180D044A9
:103FD800B8F1640FA8BF4FF0640828EAE8783046C3
:103FE80086F8018002F08CFE02204146CDE196F869
:103FF8000390D144B9F1640FA8BF4FF0640929EACE
:10400800E97986F803903046D8F83C1102F02EFE84
:1040180003204946B9E1717951446429A8BF642154
:1040280021EAE17171710D2002F000FFB9F10D0F65
:1040380000F01982317951446429A8BF642121EA2A
:10404800E17131710E20A0E1B179514481F3080189
:10405800B171052099E1D8F840311A78022A20D1A7
:1040680007EE90AAB8EEE70ADFED427A93ED097AF7
:1040780080EE270A30EE070AB5EEC00AF1EE10FA14
:1040880007D4B4EE670AF1EE10FAC8BFB0EE670ABB
:1040980001E09FED390A83ED090A0F2002F0B0FE16
:1040A8000AE099785144C829A8BFC82121EAE171DA
:1040B80099700F2002F0BAFEB9F10F0F00F0D3810A
:1040C800D8F840311A78022A1ED107EE90AAB8EE25
:1040D800E78ADFED287A93ED080A88EE278A38EE1A
:1040E800000AB5EEC00AF1EE10FA07D4B4EE670A7A
:1040F800F1EE10FAC8BFB0EE670A01E09FED1E0AA4
:1041080083ED080A122068E159785144C829A8BFEC
:10411800C82121EAE1715970122036E1D8F84031FE
:104128001A78022A32D107EE90AAB8EEE70ADFED34
:10413800117A93ED0C7A80EE270A30EE070AB5EE75
:10414800C00AF1EE10FA19D4B4EE670AF1EE10FACB
:10415800C8BFB0EE670A13E05B230020680C0108B3
:10416800100C0020DC1700200C1800201C0D00206B
:1041780000007A440000C842000000001FED020A57
:1041880083ED0C0A102002F03BFE0AE0197B514433
:10419800C829A8BFC82121EAE1711973102002F0CB
:1041A80045FEB9F1100F00F05E81D8F840311A7859
:1041B800022A1ED107EE90AAB8EEE78A5FED137ABD
:1041C80093ED0B0A88EE278A38EE000AB5EEC00A8E
:1041D800F1EE10FA07D4B4EE670AF1EE10FAC8BF90
:1041E800B0EE670A01E01FED1C0A83ED0B0A1320ED
:1041F800F3E0D97A5144C829A8BFC82121EAE1715E
:10420800D9721320C1E0D8F840311A78022A22D195
:1042180007EE90AA1FED2A0AF8EEE77A87EE800AE1
:10422800D3ED0F7A30EE270AB5EEC00AF1EE10FA98
:1042380009D45FED307AB4EE670AF1EE10FAC8BF20
:10424800B0EE670A01E01FED340A83ED0F0A112072
:1042580002F0D6FD0AE0997D5144C829A8BFC821BB
:1042680021EAE1719975112002F0E0FDB9F1110F11
:1042780000F0F980D8F840311A78022A20D107EEE8
:1042880090AA1FED450AB8EEE78A88EE008A93EDFA
:104298000E0A38EE000AB5EEC00AF1EE10FA09D49B
:1042A8005FED4C7AB4EE670AF1EE10FAC8BFB0EED3
:1042B800670A01E01FED500A83ED0E0A14208CE016
:1042C800597D5144C829A8BFC82121EAE17159750F
:1042D80014205AE0D8F840311A78022A1ED107EE85
:1042E80090AAB8EEE78A5FED5D7A93ED0A0A88EE48
:1042F800278A38EE000AB5EEC00AF1EE10FA07D4A4
:10430800B4EE670AF1EE10FAC8BFB0EE670A01E032
:104318001FED670A83ED0A0A09205EE0D978514447
:10432800C829A8BFC82121EAE171D97009202CE069
:10433800D8F840311A78022A1ED107EE90AAB8EEB2
:10434800E78A5FED747A93ED0D0A88EE278A38EED6
:10435800000AB5EEC00AF1EE10FA07D4B4EE670A07
:10436800F1EE10FAC8BFB0EE670A01E01FED7E0A51
:1043780083ED0D0A0A2030E0597B5144C829A8BFB3
:10438800C82121EAE17159730A2002F04FFD6AE061
:10439800D8F840311A78022A22D107EE90AA1FEDE8
:1043A8008C0AB8EEE78A88EE008A93ED100A38EE98
:1043B800000AB5EEC00AF1EE10FA09D45FED937A5F
:1043C800B4EE670AF1EE10FAC8BFB0EE670A01E072
:1043D8001FED970A83ED100A0B2002F011FD42E051
:1043E800D97D5144C829A8BFC82121EAE171D975EE
:1043F8000B20CAE7012936D19078029A32F9138046
:10440800B8F5617F05DB40F633039845A8BF9846A9
:1044180001E04FF46178B9F10C0F24D1704A4FF4E0
:10442800966393FBF0F01378A8F5617898FBF0F8A1
:104438005FFA88F8434516D0B8F1040F34BF4346F5
:1044480002231370674A09FB035303F2DA6313600C
:1044580003F046FC4846414602F0E8FC08F101003A
:10446800C0B202F03FFD009A0123934094F838212E
:10447800134384F83831009B0133042B00930BF16C
:104488000C0B7FF41AADD2E43B68D9050FD5564B17
:10449800DB7863B1554B1B689A0708D5544B1B88CA
:1044A80013F0010608D1012003F03EFB04E00120CF
:1044B80003F02AFB012300E0002318F0040F0BD0BF
:1044C80053B1012003F020FB494B1B889B0706D4FE
:1044D800022003F029FB02E0022003F015FB18F488
:1044E800006F4FF4807002D003F01EFB01E003F070
:1044F8000BFB6B79082B01D00E2B02D1402003F067
:1045080003FB012384F8443107B0BDEC028BBDE8FE
:10451800F08FB9F1000F03D0BBF17E0F3FF418AC58
:10452800BBF1970F04D14FF4C873A4F8003111E41C
:10453800BBF1A70F06D194F8F03043F0040384F8D8
:10454800F03007E40023BBF1BB0F059301D1022330
:1045580004E0BBF1B70F04D14FF6FE73ADF8163087
:1045680021E0BBF1BE0F01D1022305E0BBF1BD0F75
:104578007FF4F0AB4FF6FE73ADF8143013E0012072
:1045880002E0022000E003205FFA80F808F1FF3320
:1045980085F8D83603F00AFB03F0C6FB404602F064
:1045A800A1FCFFF7D7BBDAF80030BDF81410B3F858
:1045B80064200A44A3F86420BDF81610B3F86620F6
:1045C8000A44A3F8662003F0F1FA03F0ADFB0120DA
:1045D80002F088FC002384F8FA30FFF7BBBB00BF69
:1045E800D8170020DC170020101800204C180020D5
:1045F8003E14002010B5214A18B9136802221A8205
:1046080010BD1F48146800230380217811F07F0132
:1046180002460DD1637A990644BF0221017013F056
:10462800400F037814BF43F0010323F0010315E0A2
:10463800012921D002291ED1637913F0800F03F0DC
:104648000F034FEA830303F1804303F5B8431B6864
:1046580006D003F03003102B07D10123137004E0B8
:1046680003F44053B3F5805FF6E7064B1B681B69FC
:104678009847034810BD184610BD00BFCC1A00204B
:10468800580D00202414002010B5064C18B92368D2
:1046980001221A8210BD044B1B689B68984720684A
:1046A8000C3010BDCC1A00202414002010B5064C84
:1046B80018B9236801221A8210BD044B1B681B68B5
:1046C800984720680A3010BDCC1A00202414002016
:1046D80003788B4283BF034B03EB410148880020DA
:1046E800704700BF580D002070B5002213462449BA
:1046F80014180C44A47E83EA0423082413F4004FFE
:104708004FEA430318BF83F4815304F1FF3418BF01
:1047180083F0010314F0FF049BB2EFD10132192A90
:10472800E5D100F1190200F11A050A440D44967EFC
:10473800AA7E02EB062292B29A421FD1104B93F83E
:104748003B50E2B2AA4216D2431C03EB4203DBB24F
:10475800CA1801330B44927E9B7E03EB02239BB263
:104768004FF4AF6253431B13064A03F5487322F80C
:1047780014300134E5E7012381F83C3070BD00BFF7
:10478800580D00205A0D002003788B420BD9074B97
:104798001A78074B89001944086C02B1400800F5E3
:1047A800777080B270470020704700BF98220020C1
:1047B800580D002007299DBF034B03EB8101B1F879
:1047C80070000020704700BF580D0020034B03EB1A
:1047D8004101B1F89000C008704700BF580D002093
:1047E8000A4BDFED0B7A03EB810191ED2C7AB8EEE1
:1047F800477AF6EE046AE7EE267A82B0FCEEE77AAC
:10480800CDED017ABDF8040002B07047580D0020C4
:1048180000005C4470B5334C054602F07BFBD4F8CD
:10482800F830C4F8F800C31AB3F5FA5FC4F8FC30DE
:1048380082BF002384F8003184F8013194F80031F4
:104848002BB9A12D02BF274A012182F8011194F842
:104858000111244A29B1D118EDB201338D7682F8BD
:10486800003194F8005194F80231AB4239D11D4B14
:1048780093F80331052B02D0062B03D02CE000203F
:10488800FFF732FFE37E1E2B26D100200246C1B27D
:104898006B1E994219DA21448B7E0821DBB283EA28
:1048A8000206F60744BF83F01803C3F3460301F179
:1048B800FF3154BF5B0843F0800311F0FF01C2F3DE
:1048C8004702ECD101301A46E1E723449B7E9A4225
:1048D80002D10320FFF708FF002384F8013184F890
:1048E800003170BD580D002010B5044602F012FBCF
:1048F800114BD3F80421C3F80401821A41F288311C
:104908008A42C3F8082184BF002283F80C2193F857
:104918000C31094A0F2B0DD8591CC9B21344102960
:10492800E4B283F80D4114BF0023012382F80C116F
:1049380082F81D3110BD00BF580D002010B5044687
:1049480002F0E8FA0F4BD3F82021C3F82001821AAD
:1049580041F288318A42C3F8242184BF002283F8B7
:10496800282193F8282107491344142A18BF013233
:1049780083F8294112BF81F82821012381F83E31AB
:1049880010BD00BF580D002038B5044602F0C2FA29
:10499800274A2749D2F84031C2F84001C31AB3F573
:1049A8007A6F84BF002382F8443192F8443133B9D6
:1049B800A82C3BD181F84531A1F8463106E0022BFD
:1049C80002D181F8484101E0242B02D8D11881F89E
:1049D800494192F84811164D01330231DBB24900C2
:1049E8008B4282F8443118DAB5F84631E0B283EAEE
:1049F8000020082310F4004F4FEA400018BF80F44D
:104A0800815003F1FF3318BF80F0010013F0FF035A
:104A180080B2EFD1A2F8460138BD01318B4201BF07
:104A2800002385F84431012385F8453138BD00BF9E
:104A3800580D002010B5044602F06CFA124BD3F85A
:104A4800702140F6AC51821A8A42C4BF002283F812
:104A5800742193F874212AB90F2C13D10A49C1F88B
:104A6800700101E0182A0DD8511CC9B283F87411DD
:104A780013441929044883F8754114BF00230123FE
:104A880080F88E3110BD00BF580D002008B50C4BC2
:104A9800002093F82C1004F0F9F90A4B1B68187AD7
:104AA800082801BF084B4FF480521A80074B04BFF7
:104AB80010221A80A0F109035842584108BD00BFCE
:104AC80058020020CC1A00202014002022140020B4
:104AD8002DE9F843324F3D682A8A2E7AB2B9042E5E
:104AE80014D1304C30482378012B0BD12F4B196847
:104AF8002F4B89B20B445B0019681A60302303807E
:104B0800227048E010230380072644E0AC8AAB6992
:104B1800A24294BF04260226944228BF14461FFAD4
:104B280084F840469847214A13689BB203F1005322
:104B380003F540535B0004F1010E1B689BB203F1BF
:104B4800005303F540534FEA6E0E5B000021714598
:104B580000F1020009D010F8019C10F802CC4CEAD0
:104B6800092C23F821C00131F1E71268104B92B2E9
:104B780013445B001A681C602B8AC8EB03032B8262
:104B88006B8A9844084BA5F8128030221A80094B8A
:104B98004FF440521A803B681E72BDE8F88300BF8C
:104BA800CC1A00205D23002022140020505C004015
:104BB80002300020201400202DE9F0414D880E8895
:104BC800CB880C894A89B1F80C80B1F80EE08F883F
:104BD800B5F5827F1BD11E4346F4827646EA04056A
:104BE800B0F800C045EA020444EA080242EA0E03AB
:104BF8000CF4415C4CEA03039BB20380828822F4E4
:104C080070631B041B0C3B439BB283801CE0B0F811
:104C180004C02CF4706C4FEA0C4C4FEA1C4C4CEA64
:104C280007072E43BFB233438780234307881343C4
:104C380043EA080307F4415743EA0E0347EA030E21
:104C48001FFA8EFEA0F800E0838B23F400631B0498
:104C58001B0C83830B8A0382BDE8F081084BDA685A
:104C6800D10709D4DA68D20608D4DB6813F0040F38
:104C780014BF0320042070470120704702207047AA
:104C88000020024002684FF6FE73134003600023C1
:104C9800036043608360C360284B984201D1284A6F
:104CA80027E0284B984201D1254A2AE0264B984212
:104CB80001D1234A2DE0254B984201D1204A30E00A
:104CC800234B984201D11E4A33E0224B984204D12B
:104CD8001B4A536843F470032EE01F4B984204D1DB
:104CE800174A536843F0706326E01C4B984204D17E
:104CF8001B4A536843F00F031EE01A4B984204D135
:104D0800174A536843F0F00316E0174B984204D152
:104D1800134A536843F470630EE0144B984204D16D
:104D28000F4A536843F4704306E0114B984204D18C
:104D38000B4A536843F470235360704708000240DD
:104D4800000002401C0002403000024044000240C3
:104D5800580002406C0002408000024008040240F3
:104D6800000402401C040240300402404404024093
:104D780058040240994A536803F00C03042B2DE9A8
:104D8800F04105D0082B06D095490160B3B916E06B
:104D9800934B036012E053685468C3F38343991C30
:104DA800E30349BFD36A8F4B8D4C03F00F0344BF15
:104DB8000133B4FBF3F34B43036000E00023516875
:104DC800894FC1F303117D5C0168EDB221FA05F446
:104DD80044605668C6F30226BE5D24FA06FEC0F893
:104DE80008E05668C6F3C226BE5DF6B2F440C46059
:104DF800D2F82C80C8F3041808F00F0C07EB4C0C01
:104E080018F0100FBCF810C01FFA8CFC07D0BCF1CA
:104E1800000F04D0B3FBFCFCC0F810C000E0016137
:104E2800D2F82CC0CCF3442C0CF00F0807EB480741
:104E38001CF0100F3F8ABFB204D01FB1B3FBF7F7C5
:104E4800476100E04161176BFF065ABF644F8761F5
:104E58008161176BBF065ABF614FC761C161176B8C
:104E68007F065ABF5E4F07620162176BFF0506D5C2
:104E7800994204D1AE4202D14F00476200E0446239
:104E8800176BFF0406D5994204D1AE4202D14F00F8
:104E9800876200E08462176BBF0506D5994204D18A
:104EA800AE4202D14F00C76200E0C462176B7F05B3
:104EB80006D5994204D1AE4202D14F00476400E0C2
:104EC8004464176B3F0506D5994204D1AE4202D11E
:104ED8004F00876400E08464176BBF0406D59942CD
:104EE80004D1AE4202D14B00C36400E08464156B68
:104EF8003A4BAD0701D1046315E01C6B04F00304C1
:104F0800012C01D101630EE01C6B04F00304022C98
:104F180002D14FF4004305E01B6B03F00303032B9E
:104F280001D12F4B0363146B2C4B14F4403F02D177
:104F3800C0F834E018E01C6B04F44034B4F5803F4A
:104F480001D1416310E01C6B04F44034B4F5003F18
:104F580002D14FF4004306E01B6B03F44033B3F572
:104F6800403F01D11E4B4363146B1C4B14F4402F7C
:104F780002D1C0F838E018E01C6B04F44024B4F502
:104F8800802F01D1816310E01C6B04F44024B4F538
:104F9800002F02D14FF4004306E01B6B03F44023BB
:104FA800B3F5402F01D10E4B8363146B0B4B14F4F4
:104FB800401F02D1C0F83CE020E01C6B04F4401410
:104FC800B4F5801F01D1C16318E01C6B04F44014D0
:104FD800B4F5001F0AD14FF400430EE00010024060
:104FE80000127A0000093D00080000201B6B03F442
:104FF8004013B3F5401F01D1134BC363126B134B1E
:1050080012F4400F03D1C0F840E0BDE8F0811A6BFC
:1050180002F44002B2F5800F02D10164BDE8F081CC
:105028001A6B02F44002B2F5000F02D14FF40043AC
:1050380006E01B6B03F44003B3F5400F01D1024BAC
:105048000364BDE8F08100BF00127A00001002403E
:10505800F0B500230E681C460125A54005EA060E9A
:10506800AE452BD10F797A1E012A15D885680322FF
:105078009A4025EA020282604D7982689D40154374
:105088008560828892B222EA0E0282808A798588B7
:10509800A2402A4392B28280032205689A40D243F2
:1050A8001540056005689F402F430760C768174093
:1050B800CA7902FA03F547EA0502C2600134102CE6
:1050C80003F10203C8D1F0BD38B52DED048B4A4C6D
:1050D8000368C4F890318388A4F89431023A0D46E5
:1050E800062A05D8DFE802F00A101822292F350011
:1050F800B4F890310B80B4F8923113E0B4F89231DF
:105108000B80B4F8903105E0B4F890315B420B8025
:10511800B4F892315B4205E0B4F892315B420B80FF
:10512800B4F890316B80B4F894311DE0B4F8903144
:105138005B420B80B4F8923112E0B4F892310B80E4
:10514800B4F890310CE0B4F890310B80B4F8923197
:1051580005E0B4F892315B420B80B4F890315B42C1
:105168006B80B4F894315B42AB80244B93F83030B9
:10517800002B3ED1B5F9003094ED690AD4ED667A7A
:1051880009EE103AB5F9023008EE103AB8EEC88ABE
:10519800B5F90430B8EEC99A28EE000A08EE903A3C
:1051A800A7EE890AF8EEE88AD4ED6C7AA7EEA80A89
:1051B8000AF006FF94ED6A0AD4ED677A288028EE93
:1051C800000AA7EE890AD4ED6D7AA7EEA80A0AF0BC
:1051D800F7FE94ED6B0AD4ED687A688028EE000A31
:1051E800A7EE890AD4ED6E7AA7EEA80A0AF0E8FEBF
:1051F800A880BDEC048B38BD580D002008000020A5
:10520800094BD3F8BC21137844F6FB7103EB431325
:1052180000FB03135078C0EB0030B3FBF0F3907839
:10522800B3FBF0F080B27047580D002010B5074C62
:1052380000210A2204F5E470A4F8C01105F09EF8D4
:1052480080B2FFF7DDFFA4F8500210BD580D002012
:105258002D4B2E4A1B68126810B51A602C4A11682B
:10526800596051689268DA602A4A99601168196130
:10527800516892689A61284A59611168D9615168E0
:1052880092685A62254A1962118819855188598588
:105298009188D288DA85224A998511881986518899
:1052A800598692889A861F4A1188D9865188928889
:1052B8005A871D4A1987118899875188D9879188F3
:1052C800A3F840101946D28821F8422F174A1078BF
:1052D8000022824206DA164C34F8124021F8024FB6
:1052E8000132F6E7134A1288A3F86C20124A128892
:1052F800A3F86E20114A1288A3F87020104A528928
:10530800A3F8662010BD00BF40190020100C002033
:10531800181500202415002030150020A0140020A6
:10532800AE140020E60B0020020C00201C16002002
:10533800D4150020180F002010190020F00C0020B0
:10534800EC0B00202DE9F8430E4B93E8800305464B
:105358000E460024B44213DA7B1933F9140008EB23
:10536800050333F9142009EB050333F9143013440A
:10537800022293FBF2F3C01A06F0A7FA0134E9E718
:10538800BDE8F883401900200A4A138801331380C6
:10539800094A136801331360084A138801339BB222
:1053A800202B01BF00231380054A138808BF01334F
:1053B80013807047B60B0020BC0B0020B80B0020F0
:1053C800A81A002030B50B4C0B4D22782B789A4246
:1053D80085B00CD0684602A904F0C4FA01236846D7
:1053E80002A9022204F022FB00232B70237005B0CF
:1053F80030BD00BF7518002074180020094A1378C2
:105408001844C0B210F0800F18BF803810701346CF
:10541800054A19781378994201BF00231370014A8D
:1054280013707047751800207418002030B50E4DA1
:105438000E4C2A7823789A4285B011D0684602A982
:1054480004F090FA002302A90222684604F0EEFA5A
:10545800FFF7D4FF20782B781B1A5842584100E0F8
:10546800012005B030BD00BF751800207418002059
:1054780010B50F4B93F80037012B014611D10D4A97
:105488000D4C1078431CDBB213701B0644BF00237D
:105498001370215404F082FA3F2808D9BDE810405F
:1054A800C4E7064BBDE81040186801F0CABF10BD3C
:1054B800841B002074180020761800209C0B002004
:1054C80038B5294B1B78083B012B05460C464AD8B2
:1054D8004520FFF7CDFF2846FFF7CAFF0E2D33D032
:1054E80003D83DB10D2D07D038BD142D20D0FF2D88
:1054F80032D038BD20682BE0637820788BB180F0FB
:105508008000FFF7B5FFA468E0B2FFF7B1FFC4F36E
:105518000720FFF7ADFFC4F30740FFF7A9FF200EF0
:105528001EE0FFF7A5FF6068BDE8384006F0CDB97A
:105538002078FFF79DFF606806F0C7F92489E0B27C
:10554800FFF796FF200A0BE0206806F0AEF96068C6
:10555800BDE8384006F0A9B9044806F0C7F90020AC
:10556800BDE8384084E738BD990B0020B52901080B
:105578002DE9FF47674B684D33F910200446430077
:105588002AB9022809D0654A1288920705D02B4407
:10559800002225F81420DA80B9E0EA18D2881AB96E
:1055A8005D4901EB8401CA600132E81892B2C280F9
:1055B80012B2002A584917DD022C594809D14F69FF
:1055C800B0F90460202096FBF0F606FB00704861F5
:1055D8000AE001EB840130F91460CF68802096FB63
:1055E800F0F606FB0070C860D5F818C04A499CF868
:1055F8005C00824240F08B8001EB84000CEB0407D6
:10560800C66897F856E096FBF2F2022C1944C2607D
:1056180008BF56424FF00000C88007BFB6B214203A
:1056280096B20A20BEF1000F6FD0002E6DD035F86B
:105638001410002969D00FFA86F90FFA81F8C145CC
:1056480063D089EAE97188EAE87AA1EBE971AAEB03
:10565800E87ACAEB0101B9F1000F09B200B203DD23
:10566800B8F1000F03DC2AE0B8F1000F27DA814215
:1056780013DD022C9CF8591009D1DFF8ACC0BCF836
:105688001C0001F580710144ACF81C1022E0E818F8
:105698004031B0F81CC061441BE04042814219DA35
:1056A800022C13D1DFF880809CF85910B8F81C0040
:1056B800C1F57F41C0310144A8F81C100AE0002957
:1056C800B8BF4942814205DD022C03D0E818818B1E
:1056D800203981832B4497F85380B3F91C309B11F0
:1056E800434503DB7345A8BF734698460D4B1B68BB
:1056F8001B0308D5142001A98DF804400292ADF8C7
:105708000C80FFF7DDFE87F8018025F8146004B0EF
:10571800BDE8F087A0140020AC0F00203E14002044
:10572800AE1400209C220020B00F00202DE9F74F76
:105738000E9F4E4CC2EB030B0D9BFF1A63680029AA
:1057480014BF4FF006094FF004090133824616468C
:1057580035D122684A4580F08580DFF82C81019197
:1057680058F822000AF061FA0B3005F09BFF019906
:10577800054608B1012076E022683D48032A98BF13
:10578800514658F8222006F01BF93A4A1368181AAD
:105798006368106001336360374B83F822500EE072
:1057A8000D9A92B103FB07F20D99895C01228A4098
:1057B800324909680A4208D1636801336360636843
:1057C8000C9A2A4D9342EBDB34E003FB0BF523687C
:1057D80006EB050A2BB970590AF027FA00F10508FB
:1057E80001E04FF00308404605F05CFF0028C1D1F6
:1057F800204A214B1068C8EB0000106093F8222063
:105808001AB12C20FFF734FE02E0012283F822208F
:10581800236843B9705906F069F89AF904104B1CCB
:10582800CAD0174803E09A4416489AF8041006F0BC
:10583800C7F8C1E710D1012005F034FF60B90D4A5F
:1058480013680A20013B1360FFF712FE2B6801332F
:105858002B604FF0FF336B60206848452CBF002059
:10586800012000E0002003B0BDE8F08FA80B002065
:10587800C0290108A00B0020AC0F0020B00B0020AD
:10588800CF29010837330108A40C01087FB52C4C37
:105898002C4E2D4D2D492E4A2E4B20B12E480088D6
:1058A800B0F5805F39D23088254E91F820101278F3
:1058B800ADF8040028788DF8060006F123058DF868
:1058C80007108DF808201B788DF8093001A82946A3
:1058D80006220AF04BF988B30198BDF80830C6F8DB
:1058E8002300AB805320FFF7C3FDB4F8230005F075
:1058F800DCFF94F8250005F0D8FF94F826300193D2
:1059080094F82730029301A894F82830039305F0FF
:105918003BFF114B00221A8010E03088A4F82300C6
:1059280091F82010287812781B7884F8250084F8DC
:10593800261084F8272084F82830D3E704B070BDF7
:10594800AC0F00203E140020000D0020101800208D
:105958003C0C0020EA0C0020B60B00202DE9F04F8B
:10596800B84BB94F1A8889B01C46002A40F09E806F
:10597800B7F8FE06B54D42F20103C41A6042604111
:10598800FFF784FFFFF764FC2C684920FFF770FDE0
:10599800AF4B2646186805F088FF56F8040B05F04B
:1059A80084FF304607F0A2F904F1100007F09EF9D1
:1059B80004F11C094FF01008A64E0123326803FABF
:1059C80008F3134203D0D9F8000005F07EFF08F170
:1059D8000108B8F1130F09F10409EDD1032104F10D
:1059E800280005F076FFB7F84031B4F92E00C01A48
:1059F80005F05BFF3368D90408D5974BB4F86C0001
:105A08001B88181AC0F30D0005F04FFF33689A047D
:105A180003D5B4F86E0005F048FF33681B0403D5BE
:105A2800B4F8700005F041FF04F13000032105F0DF
:105A380050FFA04604F13600032105F04AFF04F1A7
:105A48003C00042105F045FFB7F8403138F9440F10
:105A5800C01A05F02AFF0127804B1B789F4208DAFD
:105A680038F9020FB4F94430C01A05F02EFF013797
:105A7800F2E73368980505D5B4F96600A0F2DC5062
:105A880005F023FF2A6876486A60AA60121A911006
:105A9800744A4A43531C032293FBF2F202EB42027C
:105AA8009A1A742303FB02032B6074E16E4B6F4A4E
:105AB8001B6811688B4206D008A9002041F8203DD8
:105AC8001360FFF7FDFC97F8FE16238897F8FF068A
