:020000040800F2
:1000000000A00020C1EA00084DCB000869CB000821
:100010004BCB000849CB000847CB0008000000008C
:1000200000000000000000000000000045CB0008B8
:1000300043CB00080000000041CB00084FCB000874
:1000400035EB000835EB000835EB000835EB000810
:1000500035EB000835EB000835EB000835EB000800
:1000600035EB00085DCB000835EB000835EB0008E8
:1000700035EB000859DB00080DDB000835EB000804
:1000800035EB000835EB000835EB000835EB0008D0
:1000900035C4000835EB000835EB000835EB0008E7
:1000A00035EB0008D5DA000835EB0008E5DA000882
:1000B000C5DA0008B5DA0008A5DA000835EB000853
:1000C00035EB000835EB000835EB000835EB000890
:1000D00035EB000801DB000835EB0008F5DA000815
:1000E00063CB000835EB0008F5DB000835EB0008B2
:1000F00085DA000835EB000895DA000835EB0008D2
:1001000000000000000000000000000035EB0008C7
:1001100035EB000835EB000835EB000835EB00083F
:1001200035EB000835EB000835EB000835EB00082F
:1001300035EB000835EB000800000000000000006F
:1001400035EB000835EB000835EB00080000000037
:10015000000000000000000000000000000000009F
:10016000000000000000000035EB000835EB00083F
:1001700035EB000800000000000000000000000057
:080180000000000035EB00084F
:100188002DE9F04F2DED028BA54B1A78AFB09946AB
:10019800002A6BD0A34C2368002B01F0A6852068A9
:1001A800A04D03685B689847002801F09E85286881
:1001B8000368DB689847092801D03F2849D14FF0E8
:1001C80000086668984F45462EB198483968324607
:1001D80010F00AF910B9B84605B93D46944B1037E6
:1001E8009F42F1D3BDB163682A688E48D75CD8F8BE
:1001F8000020D15CB9420ED15A1C41B92D2B06D82A
:1002080042600344024420271F72117203E0234412
:1002180062601F72E7E763680BB1454510D08548F7
:1002280005F0A0F9454507D855F8100B05F09AF9DF
:10023800092005F090F9F5E77F4805F093F90026C5
:1002480063689E42ABD2794B985D05F084F901361C
:10025800F6E76B68002B41F0C684042841F02A8534
:1002680005F108000BF0BCFB01F03FBD734C94F89E
:100278004A30012B40F083876A4D2368AC63EB63F7
:100288002F46F86BDFF89C8103685B689847002865
:1002980000F06787D8F83C000368DB689847D8F80F
:1002A800383093F8482006461AB924283AD1012252
:1002B80035E0012A04D14D280CBF022200222EE08D
:1002C800022A04D13C280CBF0322002227E0032A7B
:1002D80009D140284FF0000221D81A71DA715871FB
:1002E800987104221BE0042A07D19A7983F84900FF
:1002F80080EA02069E71052211E0052A3AD1597951
:100308001A799142997906D941409971511C19710C
:10031800134418722EE081420CBF0622002283F893
:10032800482027E0DFF8349199F800305B0721D4A2
:10033800232ED8F83C3012D1394A4148C8F8003049
:100348000121C8F84030117005F00CF93A4805F061
:1003580009F999F8003043F0020389F80030394B65
:100368001B681B78B34205D1374B384A1A60384BA3
:10037800384ADA60BE6BDFF8AC8096F84800062889
:100388007FF47FAF96F84930492B00F0038400F2E0
:100398000381322B00F02E8600F28780222B00F09A
:1003A800168523D8032B00F0C38114D8012B00F045
:1003B800B381022B40F00187042005F0B7F84220F2
:1003C80005F085F8542005F082F8462005F07FF8FE
:1003D8004C2000F094BE042B00F0B681052B40F0B1
:1003E800EC861A2005F0A2F80025BEE1282B00F0C3
:1003F800C38535D8242B00F0A685262B40F0DD8652
:10040800154D062005F092F8B5F8580105F091F859
:10041800B5F85A0105F08DF8B5F85C01CAE200BFDD
:1004280055260020EC10002040230108F41000207D
:10043800F0240108DF360108E4360108240F002003
:1004480014370108040B0020FC9F0020EFBEADDE2E
:1004580000ED00E00400FA051803002053260020F0
:100468002A2B00F09C852C2B40F0A786D34D0C201E
:1004780005F05CF895F88E0105F029F8B5F89801B3
:1004880005F057F8B5F8940105F053F8B5F896015A
:1004980005F04FF895F88F0105F019F8B5F89C01AB
:1004A80005F047F8B5F89E0184E23D2B00F067831C
:1004B80023D8382B00F04D8511D8342B00F0B684A2
:1004C800362B40F07A86BE4BBC4D1878C0EBC00086
:1004D800C0B205F02BF805F1180600F0AEBD3A2BB6
:1004E80000F006833B2B40F06886012005F01EF8DB
:1004F800B44B1B68187800F002BE452B00F0BE858F
:1005080026D8402B00F07D85422B40F05686AB4D17
:10051800102005F00BF8687904F0D9FFA86805F0F9
:1005280011F895F88E0104F0D2FFB5F8580105F0DE
:1005380000F8B5F85A0104F0FCFFB5F85C0104F0C6
:10054800F8FFB5F87E0104F0F4FFB5F8800131E258
:10055800462B00F07B85472B40F02F8604F04CFC9F
:100568000546842004F0E2FF284604F0EBFF964B92
:10057800DF6805F18003BB428CBFC5EB0707802706
:100588000EAE0AF0A1FB28463A4631460AF08CFF27
:100598000025074600F06BBD6F2B00F0018345D89E
:1005A800672B00F00A8226D8642B00F0F78010D859
:1005B8004B2B00F0FA844D2B40F0FF85834F844D80
:1005C800387800EB4000C0B204F0B0FF002600F01D
:1005D800FBBC652B00F00881662B40F0EE851220ED
:1005E80004F0A4FF7B4B1B88B3F5806F94BF0127F1
:1005F80008270026BFE16C2B00F063820ED8682B19
:1006080000F04882692B40F0D885704E3078400061
:1006180000F0FE0004F08AFF002547E26D2B00F091
:1006280060826E2B00F07C8200F0C7BD772B00F053
:1006380051844CD8732B00F068843DD8702B00F09F
:10064800DF82722B40F0B9855C4D162004F06EFFF6
:10065800B5F8940104F06DFFB5F8400104F069FFA6
:10066800B5F8420104F065FFB5F8440104F061FFF4
:10067800B5F8D80104F05DFF002004F028FF002041
:1006880004F025FF002004F022FF95F8830104F010
:100698001EFF95F8900104F01AFF002004F017FFE0
:1006A800484B1B68B3F962000A2390FBF3F080B251
:1006B80004F03FFF00F051BC742B00F0D783752B7A
:1006C80040F07B852F2004F031FF434D77E3A02BCA
:1006D80000F02B840AD8782B00F07B817B2B40F02C
:1006E8006C853C2004F022FF002512E3F12B00F07A
:1006F800AB81FE2B00F01484F02B40F05E85314D69
:10070800042004F013FF2B68B3F8660004F011FF0F
:100718002B68B3F864004DE1032004F007FF0020C4
:1007280004F0D5FE012004F0D2FE0D2000F0E7BC55
:10073800184604F0FBFE022004F0C9FE022004F073
:10074800C6FE002000F0DBBC062004F0EFFE4320CC
:1007580004F0BDFE432004F0BAFE332004F0B7FED7
:10076800442004F0B4FE012024E11C4B585D0135FF
:1007780004F0ADFE0B2DF8D10025194B585D01355D
:1007880004F0A5FE082DF8D10025164B585D01355B
:1007980004F09DFE072DF8D100F0DABC072004F024
:1007A800C5FEE72004F093FE044B587904F08FFE51
:1007B800002004F08CFE042000F06FBC1803002019
:1007C800080B0020A80E002008000020A810002018
:1007D800B804002002000020EF2401084C3701086B
:1007E80058370108613701080B2004F09FFEB5F85F
:1007F800440004F09EFE002004F09BFEBE4B1B68E4
:10080800C3F3C000C3F38002800040EA4200C3F390
:1008180040021043C3F3401240EAC20003F0100341
:10082800184304F086FEB5F8462012F0010F0CBFFD
:100838000020022012F0020F0CBF0021042112F048
:10084800040F0CBF002310230393AB6C019002F03C
:10085800080A03F0C00B12F0400F03F480794BEA4A
:100868000A0A0CBF0026202603F4805812F0100F45
:100878004AEA090A0CBF00204FF4007003F4005C38
:1008880012F0200F4AEA080A029103F4804E0CBFC6
:1008980000214FF480614AEA0C0A12F4807F049622
:1008A80005900CBF00264FF4006603F4003003F4F3
:1008B80000474AEA0E0A0796089003F480364AEA87
:1008C800070A06914AEA060A03F48021089E09915C
:1008D80003F400204AEA060A099E0A9003F48011EC
:1008E8004AEA060A0A9E0B914AEA060A83480B9EC0
:1008F800007803F000754AEA060A4AEA050A03F096
:100908000063C0F380004AEA030303430198029E90
:10091800034303983343049E034305983343069ED9
:100928000343079812F4007F43EA060343EA0003EF
:100938000CBF00214FF40011194312F4806F704B63
:100948000CBF00224FF0806200201E780A43034645
:10095800B3420AD26B49595C012505FA01F11142EB
:100968001CBF9D4028430133F2E704F0EBFD664BC2
:1009780093F8E006C3E3654D05F14C03F05E90FB88
:10098800F7F080B2023604F0D4FD062EF3D1B5F8A4
:10099800520004F0CEFDB5F8540004F0CAFDB5F8D5
:1009A800560004F0C6FD002004F0C3FD002004F04A
:1009B800C0FD002004F0BDFDCAE3102004F0B6FD20
:1009C8000025534B585D013504F081FD102DF8D1F9
:1009D800BEE3702004F0AAFD00274E4E0E253368B2
:1009E8007D432B440137B3F8250104F0A2FD336899
:1009F8002B44B3F8270104F09CFD33682B44B3F86B
:100A0800290104F096FD33682B4493F82B0104F078
:100A18005EFD33682B4493F82C0104F058FD3368CD
:100A28002B4493F82D0104F052FD33682B4493F8BE
:100A38002E0104F04CFD33681D44D5F82F0104F055
:100A480081FD082FC9D183E370202F4D04F06EFD7E
:100A580005F1700695F8D00004F039FD95F8D1003D
:100A680004F035FD95F8D20004F031FD95F8D30077
:100A780004F02DFD95F8D40004F029FD95F8D50073
:100A880004F025FD073595F8CF0004F020FDB542A8
:100A9800E0D15DE3102004F049FD00251E4B585DB0
:100AA800013504F014FD102DF8D151E333789D423F
:100AB80080F04E83194B33F8150004F03AFD0135E8
:100AC800F4E704F033FDB8F8700004F032FDB8F82C
:100AD800720004F02EFDB8F974000A2390FBF3F0BD
:100AE80046E0062004F022FD002004F02BFD60E71C
:100AF800042004F01BFDCFE2E40E00205326002062
:100B0800200F0020040F002018030020EC10002004
:100B1800400B0020A80E002044110020EE0F0020FA
:100B2800072004F003FDB5F87600B94EFF28A8BFEA
:100B3800FF20C0B204F0CBFCA86F4FF6FF77B84295
:100B4800A8BF384620EAE07080B204F0F2FCB5F89D
:100B58007C0004F0EEFCAF4B93F8833153B1D6F828
:100B680080300A205843B842A8BF384620EAE070CF
:100B780080B21FE7D6F8800000F30F00F8E7A54D14
:100B8800022004F0D3FC95F8E00104F0A0FC95F8ED
:100B9800DF01B4E2022004F0C9FC9F4B188809E782
:100BA8000B2004F0C3FCD8F88430187804F08FFCCC
:100BB800D8F88430587804F08AFC0026D7F88430B6
:100BC800934D33440136187904F081FC032EF5D196
:100BD800D5F88430D87904F07AFCD5F88430987840
:100BE80004F075FCD5F88430D87804F070FCD5F89A
:100BF8008430588904F09DFCD5F88430187A7EE258
:100C0800864E1E2004F092FC33681B78022B4FF0AE
:100C180000056BD1336803EB850393ED080AB2EE48
:100C2800048A20EE080A0FF0A7FD80F30800C0B27E
:100C380004F04DFC3368DFED7A7A03EB850393ED1E
:100C48000B0A20EE270A0FF097FD80F30800C0B2C8
:100C580004F03DFC3368DFED737A03EB850393ED15
:100C68000E0A20EE270A0FF087FD80F30800C0B2B5
:100C7800013504F02CFC032DCCD1072D336823D18A
:100C880093ED110A20EE080A0FF076FD80F30800B4
:100C9800C0B204F01CFC336893ED120A20EE080A77
:100CA8000FF06AFD80F30800C0B204F010FC33684E
:100CB80093F84C3000EE103AB8EE400A0FF05CFDA5
:100CC80080F30800C0B20BE02B44587804F0FFFB17
:100CD80033682B44D87A04F0FAFB33682B44587DE8
:100CE800013504F0F4FB0A2DC7D131E233682B44F7
:100CF800587804F0ECFB33682B44D87A04F0E7FB0F
:100D080033682B440135587D04F0E1FB0A2DEDD101
:100D18001EE2424E9FED438A336803EB850393ED51
:100D2800080A20EE080A0FF027FD80B204F001FC43
:100D3800336803EB850393ED0B0A20EE080A0FF0E6
:100D48001BFD80B204F0F5FB336803EB850393EDDC
:100D58000E0A20EE080A0FF00FFD013580B204F0EC
:100D6800E8FB032DD5D1072D336816D193ED110A71
:100D780020EE080A0FF000FD80B204F0DAFB3368B9
:100D880093ED120A20EE080A0FF0F6FC80B204F088
:100D9800D0FB336893F84C000BE02B44587804F0F0
:100DA800C8FB33682B44D87A04F0C3FB33682B4460
:100DB800587D013504F0BDFB0A2DD4D1C8E115F8E2
:100DC800010F002800F0C48104F081FBF7E75020F0
:100DD80004F0ACFB0025114B1B6805F1200203EB66
:100DE80082035E1D104A5B790C2101FB0323013548
:100DF800187A04F06CFB707804F069FBB07804F0A2
:100E080066FBF07804F063FB142DE4D1A0E100BF89
:100E1800EC10002018030020EC0E0020A80E002083
:100E28000000C84200007A4420250108482004F048
:100E38007DFB0026B34B06271B687743D0371F443A
:100E48000136B87A04F043FB787904F040FBB879AE
:100E580004F03DFBF87904F03AFB387A04F037FBEC
:100E6800787A04F034FB0C2EE4D171E14FF00008DD
:100E780001250026A44B1B789E4222DAA34BF15C85
:100E88000023A34A03EB02099A5C8A4204D00C337C
:100E9800B3F5AE7FF5D112E0D9F804000FF09CFA53
:100EA80082460DB92F4601E0804408E0574506DA2E
:100EB800D9F80430D85D04F00AFB0137F6E70136AB
:100EC800D8E7002D00F044815FFA88F004F02EFB8B
:100ED8000025CEE78C4E307804F028FB00253378C7
:100EE8009D4280F03581894BE85C0023884A991837
:100EF8009A5C824204D00C33B3F5AE7FF6D102E09F
:100F0800087A04F0E4FA0135E9E7082004F00EFB5A
:100F18000125E8B2013504F0DAFA092DF9D117E113
:100F2800082004F003FB00203BE50C2004F0FEFA47
:100F3800784B186804F006FB774B186804F002FB3E
:100F4800764B1868A9E0042004F0F0FA744B98680E
:100F5800A3E0042004F0EAFA714D95F8780104F052
:100F6800B6FA95F87C0104F0B2FA95F87B0104F022
:100F7800AEFA95F87D01C2E0694D072004F0D6FA73
:100F8800B5F87E0104F0D5FAB5F8800104F0D1FA7D
:100F980095F8820104F09BFAB5F884010AE501206E
:100FA80004F0C4FA5E4B5879A9E05D4D042004F0C2
:100FB800BDFA95F8D60104F08AFA95F8D70104F03D
:100FC80086FAB5F8D801F5E43B789E4205F10205AA
:100FD80080F0BE8015F8020C04F079FA15F8010CBF
:100FE80000EB800000EB800000F2EE2004F0A1FA94
:100FF8000136E9E7012004F099FA494B93F890018A
:101008007DE0082004F092FA0025454B2B44013579
:1010180093F8860104F05BFA082DF6D198E092F96E
:101028000C10994200F0B28092F918209A4200F010
:10103800AD800835B54200F08B803A4A95F8F0014A
:1010480092F9001043B29942E9D19FE0364D0D2044
:1010580004F06CFA0AF0F0F904F039FA288804F080
:1010680071FAE86804F06EFA04F0AEFD15E0BD42CE
:101078006EDA705D04F02BFA0135F8E7132004F0FE
:1010880055FA0025294B585D013504F020FA0B2D3F
:10109800F8D1002004F056FA002004F053FA57E083
:1010A80040F29C80D22B47D040F22B82D82B00F004
:1010B8002B8540F29383F22B00F0E38340F2068401
:1010C800F32B40F00D8503F083FEFF28824640F0A5
:1010D8005B840026164885F8D160314660220FF0FF
:1010E8003BF98DF83760134B9DF83720997891427A
:1010F80000F2FB83012004F019FA95F8D10004F0FE
:10110800E6F925E0A80E0020200F0020040F00209B
:1011180020250108ACF7FF1FB0F7FF1FB4F7FF1F2A
:10112800180300200C0B0020080000204C37010891
:10113800C0110020540B0020C04B1B7803F004039F
:1011480003F0FF05002B00F0C381002004F0EEF946
:10115800BB4DAB6B987904F0BAF9AB6B002283F8FE
:101168004820B74B93F8D0304BB1206804F09FF972
:101178000AF0F8FB04F0F7F8B24BB34ADA60B34868
:101188004C3484427FF473A800F0AFBD04F09FF99B
:10119800B5F8F20104F0CDF995F8F40104F097F9E7
:1011A80095F8F50104F093F995F8F70104F08FF933
:1011B80095F8F60104F08BF93BE74C2B7FF470AF00
:1011C80003F006FEA24D85F8D60103F001FE85F86E
:1011D800D70103F007FEA5F8D801B6E7372B2BD1C6
:1011E80073790726B3FBF6F6C6EBC6029B1A13F013
:1011F800FF0F02D00BF016F9A7E7F6B2002EA4D025
:1012080003F0E6FDC7B278B203F034FE013EF6B251
:1012180005460028EED0077003F0E4FD688003F06F
:10122800D7FD287103F0D4FD687103F0D1FDE87192
:1012380003F0CEFDA871E1E700F2BE80292B11D1A1
:1012480003F0D0FD824DA5F87E0103F0CBFDA5F893
:10125800800103F0BDFD85F8820103F0C3FDA5F808
:10126800840172E74FD8252B07D1794B00229A6069
:1012780003F0C2FD04F0ECFB67E7272B0DD103F068
:10128800B1FD734DA5F8580103F0ACFDA5F85A015E
:1012980003F0A8FDA5F85C0157E7232B40F09F84D5
:1012A80003F096FD1328A5D86A4F3B6800F1200883
:1012B80003EB880803F08CFD674B08F1050603F57E
:1012C800AE72197A814203D00C339342F9D191E777
:1012D8001B7888F8053003F07BFD707003F078FD0B
:1012E800B07003F075FDF07038685C4BC5F8B40059
:1012F80000218530C5F8B03003F094FE584B80F0DB
:101308000100187021E72D2B21D103F061FD504D0C
:1013180085F88E0103F066FDA5F8980103F062FDDB
:10132800A5F8940103F05EFDA5F8960103F050FDC1
:1013380085F88F017379082B7FF607AF03F052FD0C
:10134800A5F89C0103F04EFDA5F89E01FDE607D81F
:101358002B2B40F0448403F03BFD3D4B5871F4E6E1
:10136800332B05D103F034FD394B83F89001ECE6BB
:10137800352B40F0348403F02BFD0B283FF63AAFB1
:10138800344B062670431E68D030064403F020FD17
:1013980003283FF62FAFB07203F01AFD707103F007
:1013A80017FDB07103F014FDF07103F011FD3072F8
:1013B80003F00EFD7072C8E6412B00F0048436D8A5
:1013C8003C2B13D1234D2E6803F002FD18B10228DF
:1013D800A8BF022000E0012030702B681B78022B88
:1013E800204B14BF204A214A1A60AEE63E2B09D191
:1013F80003F0EEFC164D85F8E00103F0E9FC85F8F2
:10140800DF01A2E6392B40F0EA8303F0E1FC104D3E
:1014180085F8780103F0DCFC85F87C0103F0D8FC42
:1014280085F87B0103F0D4FC85F87D018DE6442B1B
:101438001ED1012385F8D03087E600BF532600204F
:10144800EC10002000ED00E00400FA05BC0F0020BD
:1014580018030020A80E00202025010858040020A9
:10146800840100209002002099A10008458100080D
:1014780025D8432B40F0B38303F0AAFCCF4D0023BB
:10148800AB60687103F0B8FC04F0E2FA03F0A0FC6A
:1014980085F88E0103F0A6FCA5F8580103F0A2FC1C
:1014A800A5F85A0103F09EFCA5F85C0103F09AFC2C
:1014B800A5F87E0103F096FCA5F8800145E6482BC7
:1014C80002D106F047FC40E64A2B3FF43EAE86E3E5
:1014D80003F07EFCB94B022883F8E0060CD983F8A8
:1014E800E05609E0D02B40F07A83B54B1B785907BA
:1014F8003FF52BAE05F0F0FC05F0FAF908F0CCFB4F
:1015080023E6CC2B34D17379092B7FF673AED5F84B
:10151800845003F05DFC287003F05AFC687003F0F7
:1015280057FC6428A8BF6420287103F051FC642884
:10153800A8BF6420687103F04BFCFF28A8BFFF20F8
:10154800A87103F045FC642828BF6420E87103F003
:101558003FFCA87003F03CFCE87003F043FC688192
:1015680073790A2B7FF6F1AD03F032FC2872ECE5B3
:1015780000F2D180C82B27D176797608122E3FF653
:1015880039AE0027B74206D203F02CFC0EAB23F885
:1015980017000137F6E70023B3428A4A06DA0EA994
:1015A80031F8131022F813100133F5E7013E02EB6E
:1015B80046062232964203D0002326F8023FF9E776
:1015C800012385F8AE30C0E5CA2B79D17E4E336849
:1015D8001B78022B4FF000055FD1376803F0F8FB4A
:1015E80007EE100AF8EE477AB2EE048AC7EE887A58
:1015F80007EB8507C7ED087A376803F0E9FB07EEC4
:10160800900AB8EE677ADFED717AC7EE277A07EBB2
:101618008507C7ED0B7A376803F0DAFB07EE900A07
:10162800B8EE677ADFED6A7AC7EE277A07EB8507A7
:101638000135032DC7ED0E7ACFD1072D37681AD1A2
:1016480003F0C6FB07EE100AF8EE477AC7EE887A71
:10165800C7ED117A376803F0BBFB07EE100AF8EE06
:10166800477AC7EE887AC7ED127A376803F0B0FB7D
:1016780087F84C000DE003F0ABFB2F447870376817
:1016880003F0A6FB2F44F872376803F0A1FB2F4440
:10169800787501350A2DD0D157E5376803F098FBE6
:1016A8002F447870376803F093FB2F44F87237683B
:1016B80003F08EFB2F4401350A2D7875EDD144E5F2
:1016C8004E2B40F08C8277790323B7FBF3F7122F68
:1016D8003FF690AD394D0026BE42BFF436AD03F05B
:1016E80077FB85F8A00103F07DFB40F2ED239842DB
:1016F80005DD40F6CA039842A8BF184601E040F24B
:10170800EE20A0F2EE20192390FBF3F085F8A1015A
:1017180001360235E0E7CE2B0AD1294B1B785B074F
:101728003FF513AD2B4B1A7842F004021A700CE502
:1017380009D2234B1B785A073FF507AD264B4FF4C8
:10174800C8721A8001E5CF2B7FF4CCAE03F04AFBB8
:101758006FF4AF6543199BB2184DC62B98BFA5F817
:10176800940103F03FFBA5F8400103F03BFBA5F80B
:10177800420103F037FBA5F8440103F033FBA5F859
:10178800D80103F025FB03F023FB03F021FB03F052
:101798001FFB85F8830103F01BFB85F8900103F01C
:1017A80017FB094B1E6803F01DFB00EB800040008F
:1017B800A6F8620003F00CFB2AE600BF180300201D
:1017C8005326002076110020A80E00200000C842F1
:1017D80000007A44650E0020BE100020D42B3DD1B5
:1017E80073790F2B7FF406AD03F0F2FA072805464C
:1017F8003FF600ADBE4E376803F0F4FA0E235D43A2
:101808002F44A7F82501376803F0ECFA2F44A7F80E
:101818002701376803F0E6FA2F44A7F8290137684B
:1018280003F0D6FA2F4487F82B01376803F0D0FA73
:101838002F4487F82C01376803F0CAFA2F4487F839
:101848002D01376803F0C4FA2F44366887F82E0153
:1018580003F0D2FA3544C5F82F0176E404D203F038
:10186800C1FAA5F8880070E4D62B08BF002540F01F
:10187800B68103F0B7FA9F4B58530235102DF8D1B3
:1018880063E403F0A5FA0F2805463FF6B3AC03F06E
:101898009FFA994BC5EBC5052B4403F1D00583F896
:1018A800D00003F095FA687003F092FAA87003F07C
:1018B8008FFAE87003F08CFA287103F089FA6871DE
:1018C80003F086FAA87103F065FE3EE4EF2B40F0C2
:1018D8008681874D2E6803F085FAA6F866002D6884
:1018E80003F080FAA5F864002FE49DF8372003EB95
:1018F800C2025279D6073FD59DF837107F4A03EBCD
:10190800C101097907EB4101B1F95810002933DD0C
:1019180092F8D1609DF83700F10002EB010E03EB5D
:10192800C00292685268CEF8D4209DF8372003EBA5
:10193800C2039B681889AEF8DA00002301229A4096
:10194800024003D10133102BF8D100E01A467B186E
:101958000136A3F8D820D3F8D400B3F8DA30ADF8BC
:10196800383004238DF83A300EA901238DF83B3026
:1019780007F0C2FE87F8D1609DF837300133DBB23B
:101988008DF83730FFF7AFBB95F8D130DFF86C81B1
:101998009842BFF42FAC002003F0C8FDD8F83830C7
:1019A800987903F094FDD8F83830186803F07FFD73
:1019B800D8F83C0003F03EFA03F012FD72B6504E20
:1019C8004FF400634FF4806B33854FF00109A6F89C
:1019D80028B03046ADF838300EA904238DF83A30D7
:1019E8008DF83B904FEACA0A07F086FE30460EA9EA
:1019F8008DF83A908DF83B90ADF838B007F07CFE42
:101A080008EB0A02D2F8D430B2F8D8101868B2F845
:101A1800DA2001FA09F109FA01F949EA0001196025
:101A28009A61C6F818B0338A1805FCD407EB0A0384
:101A38000126D3F8D400B3F8D8200168520006FA7A
:101A480002F20A430260D3F8D420B3F8DA301385DF
:101A58002B4A4FF4806111850821916140F60556A3
:101A6800DFF89C80B8F81020110503D4002EF7D0B9
:101A7800013EF5E78361ADF8383004238DF83A303C
:101A88000EA901238DF83B3007F036FEAEB11C4B92
:101A98001A8A1205CAD507EB0A02D2F8D410B2F88E
:101AA800DA20098A0A424FF480614FF0080215BF14
:101AB800996119859A611A85E9E74FF48063C8F836
:101AC80018300823C8F8183062B60A2003F041FC21
:101AD8000BF028FDAB6BF32283F84920FFF735BBE9
:101AE800FA2B7CD1074B1B785F077FF505AD76E0B5
:101AF800A80E0020A411002018030020EC100020DC
:101B0800000400485326002000257A4E9FED7A8A6B
:101B1800376803F067F907EE100AF8EE477A07EB23
:101B28008507C7EE887AC7ED087A376803F05AF94F
:101B380007EE100AF8EE477A07EB8507C7EE887AB2
:101B4800C7ED0B7A376803F04DF907EE100AF8EE87
:101B5800477A07EB8507C7EE887A0135032DC7ED6D
:101B68000E7AD2D1072D37681AD103F03BF907EE68
:101B7800100AF8EE477AC7EE887AC7ED117A376807
:101B880003F030F907EE100AF8EE477AC7EE887AC4
:101B9800C7ED127A376803F025F987F84C000DE095
:101BA80003F020F92F447870376803F01BF92F44AD
:101BB800F872376803F016F92F44787501350A2D45
:101BC800D0D1FFF7C2BA002503F002F94B4B2B44E2
:101BD8000135082D83F88601F6D1FFF7B6BA0AF069
:101BE80021FCFFF7B5BA0C2803D1454803F0BAFC2D
:101BF80052E00A2801D00D2850D1424D424805F143
:101C0800080603F0AFFC304623210EF0D8FB08B1DC
:101C1800801B68606368002B35D0591E394A705C98
:101C2800202801D10B46F6E75360134400221A72AC
:101C3800364B374DD3F800B0D5F800A0DFF8C48094
:101C480050460EF0C9FB08F10807064651463846CB
:101C580032460EF0C9FB2F4B30B908EB0602127A58
:101C68005A445278520703D010359D42E4D306E017
:101C78009D4204D2701CEB683844984702E026481D
:101C880003F070FC002325486360002130220EF029
:101C980063FB99F8003043B3214807E07F280FD150
:101CA800013B6B602B4400221E481A7203F05AFC59
:101CB800FEF775BA0C2898D07F2804D1FEF76FBAC2
:101CC8002F2B3EF66CAAA0F12002D2B25E2A3EF675
:101CD80066AA13B920283EF462AA5A1C23446260FB
:101CE800187203F038FCFEF75ABA2FB0BDEC028B1D
:101CF800BDE8F08FA80E002000007A4418030020E9
:101D0800E9360108EC1000209145010894020020F2
:101D180040230108F0240108F4360108F4100020DB
:101D2800E4360108103701082DE9F04FB54A2DEDCA
:101D38000E8B1378062B95B0174605D8B24A342176
:101D480001FB03239C6A00E00024B04D0DA8EB685A
:101D580098479DF834302E46AD4D23B13B78062B7D
:101D68000CD900230FE003F06EF9AA4B1B68E31AA5
:101D780018442B6864339842E7D3EFE7A24A34212A
:101D880001FB03239B6AD5ED000A9FEDA39AA34CA0
:101D9800A34AF8EE600A9BB205EE903A60EE890A13
:101DA8002046E0EC010AB8EE650A0121138003F031
:101DB80099FCBCEEC00A9B4810EE103A2382736867
:101DC800984E984738B9984B1A6812F0020F9B46FC
:101DD80040F0C280C3E3676917B304F11802B11E6B
:101DE80006F1040C002315461846B5F802E025F85C
:101DF80002EB17F9038001330C2B1EFB0800F4D10A
:101E08004B88138397F90C5013FB05034FF4807527
:101E180093FBF5F321F8023F614502F11A02E1D183
:101E2800824B80481A78DFF824A2014602F017FF97
:101E38007F4B1A889946002A00F08480A36E1B788D
:101E48004FF0000808EE103AAAF148054746B9F8DD
:101E58000020DFF8FCB1B2F57A7F03D100234BF8FC
:101E680008302B61F15F5BF808300B444BF8083001
:101E78002B6907EE101A0133012BF8EEC77A2B6194
:101E880006D10023C5ED017AC5ED007AAB6019E0F3
:101E980095ED006A05EE903A77EEC66AB8EEE57AF7
:101EA80086EE877A36EE077A37EEC76AD5ED027A7C
:101EB80085ED017AE6EE867A85ED007AC5ED037A3E
:101EC800C5ED027A0023012AF3532AF8073027D1F7
:101ED8002B69012B09DD013B00EE103AD5ED037AA1
:101EE800B8EEC00A87EE800A01E09FED520A0EF0B4
:101EF800EDFC18EE101A49B1F8EEC87AB4EEE70A0C
:101F0800F1EE10FA02DD4FF47A7319E05BF808304D
:101F18004FF47A7203F5FA7393FBF2F32AF8073059
:101F28000237062F08F1040805F114058FD1B9F816
:101F38000000012801D109F06BFBB9F80030013B22
:101F4800A9F800300023F15A3AF803208A1AF2520D
:101F58000233062BF7D136E794F8BA302F4D002B11
:101F680000F0FD8203F06FF8D5F8BC30C5F8BC006E
:101F7800C31A0EEE103A00272F4B30481A68304D1E
:101F8800117899B1C25FF8EE4E0A00EE102A0623C6
:101F9800083003FB0700B8EEC00A60EE890A03F0B8
:101FA800A1FBBDEEC00A10EE103A00E0C35BEB5394
:101FB8000237062FE0D1B5F802902988B5F80480D9
:101FC800204F19FB09FA11FB01AA642018FB08AA83
:101FD80000FB0AFA388840439AFBF0FADBF8000065
:101FE80010F0080BAAF1520A37D01748B0F90030A0
:101FF80083B3B0F902306BB3B0F90400003018BFF6
:10200800012028E08C02002018000020B80E0020D3
:10201800EC0E0020CC100020BD3786353012002091
:10202800301100203E110020E40E0020E00E0020B8
:102038005026002000000000F40E0020F0120020BE
:10204800381100200200002028120020E41200208D
:10205800D8120020184600F0010BB6F902C0B6F9F4
:1020680000308D48B6F9046090ED007A8B480691EF
:102078000BEE90CA0CEE103AF8EEEBBAB8EECCCAFA
:102088006BEE87BA2CEE07CA0BEE106A2BEEAB0A82
:10209800B8EECBBAACEE0C0AB0F800C0468880881F
:1020A80007902BEE07BAF8EE4E7AABEE0B0ACDF896
:1020B80020C027EE899A0EF009FC9FED798A0798CF
:1020C8000699DDF820C0F0EE40CAF7EE00AABBF191
:1020D800000F58D00FFA8CFC05EE90CA36B2B8EE55
:1020E800E5AA08EE906A2AEE0A0AF8EEE88A00B233
:1020F80007EE100AA8EEA80AF8EEC79A9FED697ACB
:10210800A9EEA90AB4EEC70AF1EE10FA3BDD0EF00B
:10211800DDFB8AEE800AD4ED3C7A94ED3B7A68EEDA
:10212800808A2AEE00AA68EEA77A69EE809AE7EE1E
:102138000A7A94ED3D7AE7EE297A94ED3F7A68EED3
:10214800878A94ED3E7AE7EE0A8A94ED407AE7EEC4
:10215800298AB0EE48AA28EEA80AF0EE489AA7EE17
:10216800A70A0EF0B3FBD4ED417A069920EE680A6F
:10217800A7EE80AAD4ED427AE7EE809AD4ED437AAE
:10218800A7EE808A03E0F0EE489AB0EE48AABAF1CA
:10219800260F3FD809B207EE901A0FFA89F2F8EE27
:1021A800E7DA05EE902A2DEEAD0AB8EEE5DA0FFA79
:1021B80088F307EE103AADEE0D0AF8EEC78A9FEDE8
:1021C800397AA8EEA80AB4EEC70AF1EE10FA21DDB2
:1021D8000EF07CFB8AEE800AD4ED426AD4ED437A95
:1021E80068EE808A2DEE00DA26EEE87A6DEE80DA67
:1021F800ADEE277A67EEED7A3AEE07AA94ED417ACA
:1022080027EE4DDAE8EE877AADEEA6DA79EEA79AF0
:1022180038EE0D8A24490A6892ED017AB5EEC07A43
:10222800F1EE10FA4FF000031FDDDFED207AF4EE37
:10223800E7CAF1EE10FA1ED567EE0A6AD4ED447AC1
:10224800E6EE897A67EE296AC4ED447AD4ED457AD8
:10225800E6EE897A27EE087AC4ED457AD4ED467A17
:10226800E7EE097AC4ED467A05E0C4F81031C4F8FF
:102278001431C4F818310E4BD2ED027A1A7812F0E4
:10228800040F9A4618D10B4B1A6844F61F639A42FA
:102298008CBF0023012310E0FC0E00202812002030
:1022A800000000000AD7233CF40E0020C2B8B23E5A
:1022B80053260020D02300200023002BF7EE006ACD
:1022C800B2EE047A08BFB0EE667A27EE877AD4EDCC
:1022D800454AD4ED446AD4ED465A94ED486AD4EDA3
:1022E800477ADB4EE7EE294AE7EE0A6AE7EE085A34
:1022F800B6EE007A29EE077A7BEEA44A7BEE255AE1
:1023080064EE874A7CEE266A65EE875A66EE876A2F
:1023180024EEC67A94ED498A96ED005AA7EEE67A3D
:10232800B1EE484AA4EE257A75EE078A26EE257A9C
:10233800A5EE267AA4EE247A77EE879A25EEE77A38
:1023480067EEA47AA5EE247AE5EE257AA8EE267A39
:1023580029EEA90A36EE07AAA8EEA80AE6EE667ADA
:10236800AAEE0A0A38EE278AA8EE080A0EF0AEFA94
:102378008AEE800A68EE808A69EE809A2AEE00AAC0
:1023880028EE000AC6ED008AC4ED479A84ED48AAF3
:1023980084ED490A03F03EF994ED438AD4ED42AA4C
:1023A800DFEDAC8AAC4EF0EE480AB0EE6A0A0EF0E9
:1023B8008BFA20EE280A0EF0DFF994ED41AA30805E
:1023C800B1EE4A0A0EF022FADFEDA47A37EEC00A1F
:1023D80020EE280A0EF0D0F9D4ED3E9A94ED3BBADF
:1023E8007080F0EE4B0AB0EE690A0EF06DFA9C4B65
:1023F800D3ED007AE0EE687AB0EE670A0EF0BCF929
:1024080083B21A0458BFB380964B94ED3C7AD3ED4F
:10241800007A954B94ED3F5A1A7848BF00F56160F1
:10242800B4EEE78A48BFB080F1EE10FACCBF42F0B4
:10243800080222F008021A70B5F90230B5F9002036
:10244800B5F90450D4ED3D7A06EE903A05EE902A9F
:10245800F8EEE66AF8EEE55A26EE870A06EE105A16
:10246800ABEE250A814D824B2A68B8EEC66A5278CF
:10247800A7EE860A012A6AEEA67A66EE856AEAEE71
:10248800257AE9EEA56AD4ED405AE5EE866AE8EECB
:10249800067AF1EE668A1DD19AF8002050070FD40B
:1024A800D3F82821402192FBF1F1511A06EE901A37
:1024B800F8EEE66A76EEA76AFDEEE66AC3ED4A6ACA
:1024C800D4F82831402293FBF2F305EE903AF8EE67
:1024D800E56A04E03F8806EE907AF8EEE66A77EE61
:1024E800E67AD4ED4C6A94ED4B8AD4F8346179EEEF
:1024F800266A77EEC87A89EE269AA9EE278A84EDAD
:102508004B8A0EF039F9D4F84051297803F028FAAB
:10251800B0EE680A3044C4F83401D4F838610EF0DB
:102528002BF9297803F01CFAB0EE480A3044C4F8B5
:102538003801D4F83C610EF01FF9697803F010FAFD
:102548004C4B1EEE101A1A680A441A60D4F844312B
:1025580030440133C4F83C01C4F8443106E0002398
:10256800A4F8C030A4F8C230A4F8C430424BB3F980
:102578000600424B1E687389984211DBB0F5FA6F6A
:1025880096F807E009DAC21A02FB0EFEA3F5FA6311
:102598009EFBF3FE0EF1640E04E0CEF1640E01E042
:1025A8004FF0640E364BB3F894210992354A93F9EB
:1025B8005E3117689BB200210A933D460A462E4BAE
:1025C800099C31F90390C4EB090303F2F31C40F2B0
:1025D800E634A44503D8002BB8BF5B4201E04FF4B2
:1025E800FA73022A224C4FF0640C51D097F81D81DF
:1025F800B8F1000F04D04345CCBFC8EB0303002358
:1026080093FBFCF804EB480A04EB4804BAF848A129
:102618006FF0630B0BFB083BB4F94A810FFA8AF49D
:10262800C4EB080404FB0BF494FBFCF4A244164C22
:1026380021F804A0B41824796343144C93FBF4F3F1
:1026480064339BB20EFB03F393FBFCFC52E000BF28
:10265800880100204C3D0F445C110020DB0FC93F6E
:10266800F00E0020F80E0020650E0020F40E002069
:10267800301200203C260020EE0F002070110020B0
:1026880018030020A80E0020861300200CFEFFFF70
:1026980097F81E81B8F1000F04D04345CCBFC8EBB2
:1026A8000303002393FBFCFC6FF0630A04EB4C0864
:1026B8000AFB0C3B04EB4C0CB8F95E81BCF960C119
:1026C800C8EB0C0C0CFB0BFB9BFBFAFBDDF828C0E2
:1026D800C8EB0B0808FB0CF8A4F85A81B47983EA14
:1026E800E37CACEBE37C0CFB04FC9F4C9CFBF4FC14
:1026F8000CF1640C07EB02089C4B98F801A003F559
:10270800B6744FF064080CFB0AFA9AFBF8FA02F860
:1027180004A095F80BA003F26F140CFB0AFA9AFBBD
:10272800F8FA02F804A095F815A003F5B9740CFBA3
:102738000AFC022A9CFBF8FC02F804C01C4616BFDF
:1027480003F2751383F8778102F803E0099B994532
:1027580006DA874B31F803C0CCF1000C21F803C02E
:102768000231062902F1010205F101057FF427AFC4
:10277800804EB6F89631984205DBB0F5FA6FA8BFDF
:102788004FF4FA6000E01846C01A4FF47A725043CA
:10279800C3F5FA63B0FBF3F3642793FBF7F204EB9A
:1027A80042016FF0630000FB023304EB4202B1F810
:1027B8007811B2F97A016D4D0AB2821A534393FB2C
:1027C800F7F739446C4FA4F85C113B8859063DD59E
:1027D8006A4BDFED6B7AB3F904209FED6A0A0A238E
:1027E80092FBF3F3B5F890219B1A1BB208EE903ACE
:1027F800F8EEE88A68EEA78A38EE800A03F0BFF898
:10280800B0EE408AB0EE680A03F0B9F8B5F958910D
:10281800B5F956C106EE909A07EE90CAF8EEE66A48
:10282800F8EEE77A20EE667AA7EE887A67EE807A85
:10283800BDEEC77AE6EE887A17EE103AFDEEE77A33
:10284800A5F8563117EE903AA5F8583196F89A310E
:10285800002B53D04C4A454B1188228AB1FBF2F128
:102868004A4A01F1010C12781FFA8CFCA4F892C1B3
:102878001AB3B3F894A100233C4A02F5AB7002F5F1
:10288800CB7E1D5A33F80E8002F5CF7018FB0AF87C
:1028980033F800901D520FFA8CFBC9EB050998FB21
:1028A800FBF8C84423F80E800233082BE4D1374BD9
:1028B800A2F894110020187004E0B3F89421013AAA
:1028C800A3F89421B4F89411284A0BB2002B4FF0C6
:1028D800000311DDB2F992E12D4A9D5AA2F14000A0
:1028E800083215FB01F59A5A95FBFEF5521B1A5250
:1028F8000233082BF0D101E0A2F89431254DDFF81E
:10290800AC802B7813F0040F03D0234B08221A85D0
:102918005DE0D8F80020D2075CBF43F001032B70BC
:102928001E4B1B781B0703D42B7823F001032B7055
:102938001B4B1B881BB11B4B1B68980705D41A4BF4
:102948001A88003218BF012200E0012222B9B4F827
:10295800A611064B64292BD9022384F8A8312B78B9
:1029680023F001032B7029E00CFEFFFF301200203A
:102978008613002018030020321100205C1100206B
:1029880035FA8E3CDB0FC93F5C10002092190020FD
:10299800C61300205326002000040048650E0020BE
:1029A800BE100020E40E0020502600203411002024
:1029B8002978C90758BF022283F8A82102F043FBEF
:1029C800D4F8AC31C01A002801DB02F091FCC84BE6
:1029D8009B680BB1C7489847C74B1B78B3B1C74B27
:1029E800B3F90620B6F896319A420FDCC44B5B79EE
:1029F800012B01D0192B02D196F8E62132B90E2B02
:102A080004D0082B1CBF0023A4F85A31BD4B1A6808
:102A180092F824919A46B9F1000F33D03B889F076A
:102A280030D094ED430ADFEDB87AB4F85C71B4EEB7
:102A3800E70AF1EE10FA21D90DF0E8FEB34BD3ED19
:102A48006D7A20EE270A0DF097FEB0F5617FA8BFDA
:102A58004FF4617005EE900ADFEDAD7AB8EEE50A45
:102A680080EE270A02F08BFF07EE109AF8EEC77A7D
:102A780027EE800A0DF080FE80B200E00020384486
:102A8800A4F85C01A34B1B786BB10023C4F8B831E0
:102A9800C4F8BC31C4F8C0310023C4F8C431C4F848
:102AA800C831C4F8CC319C4BDAF80000B6F86A217A
:102AB80000939A4B1E689A4B196800F16403B0475B
:102AC800984B1978032917D9D4F8D0218F4B5288FD
:102AD800B2F5FA7F10D2B3F95A61B3F9D801002ED2
:102AE800B8BF764253429B1B984203DB931983423B
:102AF800A8BF0346A4F8D831D8F800301E010DD578
:102B08000023D4F8D021B4F8D691B4F8D48109922E
:102B1800B4F9D8A184481E461F4683E0834B1A683F
:102B280012F48052ECD1824BB4F85C011A70B4F8FC
:102B3800D661B4F8D471D4F8D0C1B4F9D8817D4B3A
:102B48008A4203F1100380F006819CF9009013ED8E
:102B5800027AC9F1000908FB09F905EE909A0FFA03
:102B680087F906EE109A0FFA80F9F8EEE56A05EE95
:102B7800909A0FFA86F907EE909AF8EEE77AF8EE4F
:102B8800E55A67EE877A13ED047ADFF8AC91E5EE43
:102B9800877AB8EEC66A13ED037AE6EE077A13ED84
:102BA800017AE6EE877AFDEEE77A17EE90AA29F821
:102BB80012A00132C4E7099A10ED017A92F900C017
:102BC800CCF100020FFA88FC0AFB02F207EE90CA69
:102BD80005EE902A0FFA89F206EE102AF8EEE77A47
:102BE800B8EEC66A67EE877A90ED007AE6EE077A65
:102BF8000DF1340C0FFA86FBF8EEE56A90ED017AD8
:102C0800E6EE877AFDEEE77A17EE902A92B22CF874
:102C180017200FFA82FCDC4507DD16461A460137F5
:102C2800103013468F42C6D305E00FFA83FBDC450C
:102C3800F5DB3246F1E7D4F8DC2150881788C7EB7A
:102C4800000CF31A1FFA8CFC0FFA8CF21BB2934299
:102C5800374A12DD012616700DF1320202EB4106E9
:102C6800B24208D0B2F8028018FB0CF898FBF3F8CF
:102C780022F8028FF4E7BFB207E00026167002269A
:102C880093FBF6F31F44BFB2C01AB4F85C2180B2BC
:102C980000238B425FD20DAE0FFA87F936F9136025
:102CA80006EE906A16B207EE906A224E06EB0316FD
:102CB80096ED007AF8EEE77A4FEA430C67EE877AEA
:102CC80007EE109AB8EEC77AF8EEE66AF4EEC77A1D
:102CD800F1EE10FA32D406B207EE106AB8EEC77AEF
:102CE800F4EE477AF1EE10FAC8BFF0EE477A27E023
:102CF800B80E0020E013002084010020EE0F002011
:102D080018030020A80E00208FC2753C3012002046
:102D1800EFB6B0448F0100209E04002090020020EE
:102D280070110020300D00203C0D00202C0A0020DE
:102D380056260020340D002044110020F0EE477A7A
:102D480076EEA77AB84EFDEEE77A013317EE908A51
:102D58002CF806809DE72978B44A01F0040101F0B7
:102D6800FF0309B9127882E0B14BB248DB780993C6
:102D7800B14B1B6813F000681CD10368DD0417D43D
:102D8800A94D1778298801232E46BB420DB207D2D8
:102D980036F91310A942B8BF294689B20133F4E7BE
:102DA800D4F8DC315E88B54204DD8E1BB6B202E091
:102DB800464600E000260368A049D4F8E071B1F95E
:102DC8000600D4F8E451D4F8DC11059703F48059CF
:102DD80003F010030A9313785B000B9300230B9FF7
:102DE800BB423CD0904AB8F1000F0AD1B9F1000FAC
:102DF80040F0388432F803C0C6EB0C0C22F803C04C
:102E080003E0B9F1000F40F03984099FDFF818C2D8
:102E180032F903A05FB18A88B1F802B0924503DBAA
:102E2800DA45B4BF52465A462CF8032015E00A8802
:102E3800B1F802B0924503DBDA45B4BF52465A46B0
:102E4800059F2CF803203A8A90420CEB030A04DA17
:102E58000A9A12B18A88AAF800200233BFE7784B91
:102E68001B78013BDBB2182B00F25C8109E093422E
:102E7800F5D2744931F813006B4921F81300013376
:102E8800F5E701229A40704B1340002B00F04A816D
:102E98006E4B1B8813F4807F684B0AD0B4F8562118
:102EA800ADF83420B4F85821ADF83620B4F85A21DA
:102EB80018E06049B4F8D4210968ADF83420B4F8B2
:102EC800D621ADF83620C804B4F8D821ADF838209A
:102ED8000AD55F49B3F90600D1F8E011C9898842DB
:102EE80002DA5242ADF838205A48B0F90250B0F927
:102EF80000004FF47A7105F5E16500F5E1604D4396
:102F08004FF46162414395FBF2F591FBF2F2A2F5B1
:102F1800FA72ADF84E20444A19881288A2F2DC529F
:102F2800ADF83A20A5F5FA75D4F8E021ADF84C5083
:102F3800D289891AADF83C105988891AADF83E1023
:102F48009988891AADF84010D988891AADF84210C5
:102F58001989891AADF844105989891AADF84610AB
:102F68009989DB89891A9A1AADF84810ADF84A2070
:102F78000023394A002199520233102BF9D12E4BE4
:102F8800D4F8E8411B680993344B0A941B785B001A
:102F98000B930B460B9EB34200F0A88030480A18EA
:102FA80094793CB10125153405FA04F4099D2C40A7
:102FB80000F09780405C0A9E92F904B092F8019064
:102FC80092F803C092F805A0C0EBC00706EB4707CC
:102FD8004FEA490EB7F90040B7F90260361BB6B29E
:102FE800642406FB0BFB9BFBF4FB4FEA5608C8EB7B
:102FF8000B0B1FFA8BFB1B4C14ADBCF1000F03D15C
:10300800754435F81C5C0CE0AE44E55E3EF91CECFA
:10301800754529DAAC44AC4503DBE645B4BF7546D3
:103028006546E5522BE000BF44110020300D00201A
:10303800C40F00202C0A002034110020EE0F0020BD
:10304800300B0020A4110020992098013211002093
:10305800301200205C110020400B0020F40D0020ED
:10306800F50D00201C14002009DDCCEB050CF445FF
:1030780003DBAC45B4BFE646AE4624F803E04FF0A8
:10308800010ED7F80A7092F90220A64C0EFA09F937
:1030980019EA070F0CBF77464FF0FF37DFF888E2D1
:1030A80034F8105033F80EE012FB0EF24FF0640EB5
:1030B80092FBFEF20FFA8BFB5A45BFB20CDB4FFABC
:1030C8008AFB06FB0BFB9BFBFEFBC8EB0B0B0FFA0B
:1030D8008BFB9345A8BF93460BFB075B24F810B006
:1030E80001E0914A9C520233073153E78F4B002489
:1030F800D3F8E88125460E2202FB0582894E92F913
:103108000670A35B17FB03F7642397FBF3F7A7533A
:10311800E8B202F065FA01353844082DA05304F1ED
:103128000204E8D1824F814E3B687E4C13F0200F99
:1031380031D0002002F054FA20800546012002F028
:103148004FFA7C4B60801B68190624D5D6F80C32E0
:103158001B78012B784B22D1D6F8E8C11A889CF944
:1031680014109CF906C0B3F9023011FB02F2CCF13D
:10317800000C322103FB0CF392FBF1F26FF0310CDF
:1031880092B293FBFCFC9444654493FBF1F12580D7
:103198000A4410446080D6F8E891002317E0D6F876
:1031A800E8115A8891F906C01B8891F914101CFB84
:1031B80002FC32229CFBF2FC654411FB03F32580E0
:1031C80093FBF2F2E5E7E2520233102B0ED0C3EB89
:1031D800C3004844E15EB0F90020B0F90200914212
:1031E800F1DB02B29142B8BF0A46ECE7D6F8D081CB
:1031F80098F90830A3B9514A1378013B9146182B26
:1032080067D8DFE803F02C6666466666663F666642
:10321800666666506666666666465B6666502C003D
:103228000025474BB8F90620615F442000FB0530B4
:1032380003F0A8F8C5EBC50280B260534A4400B257
:10324800B2F90030B2F90220984203DB13B2984277
:10325800B8BF034663530235102DE2D1CBE798F887
:10326800043013B10020618908E0364B1B7803F065
:10327800040303F0FF00002BF4D1014602F02EFDF9
:10328800012527E00020E18802F028FD012021899E
:1032980005E00020218902F021FD6189012002F06A
:1032A8001DFD022516E0002504EB4503E8B29988C8
:1032B800013502F013FD062DF6D10BE0002504EBD5
:1032C8004503E8B2D988013502F008FD042DF6D18E
:1032D80000E000253B689A0603D499F80030052BD6
:1032E8000AD12846218802F0F9FC681CC0B261881E
:1032F80002F0F4FC0235EDB23B68DB0205D4124B58
:103308001B782BB308F0E0FA22E000240F4B03EB04
:1033180044032819C0B2198902F0E0FC0D2CEED044
:103328000134F3E7400B00201C1400203012002069
:103338002C0A0020341100205C110020300B0020E2
:103348004014002053260020660E0020EE0F0020B7
:10335800A04B1878002840F0AC813B681C0340F172
:10336800A8819D4C2378023B052B1DD89B4B93F8D5
:10337800083733B1012B09D102F036FCC0F17F00C8
:1033880004E0D6F8500603689B689847944A96F874
:10339800541613680B44B3F5807FA8BF4FF48073AD
:1033A8008342D4BF136010602378023B082B00F2DD
:1033B8000981DFE813F009003700070107014F0012
:1033C8006100CF00EC00F700864B874E1A687368DF
:1033D80064339A4240F2F680402007F08DFC0028C2
:1033E80040F0F0804025814B32687F4F985C9846CA
:1033F80058B107F0C3FC7A4A1168013911603A687C
:10340800013D02F101023A60EDD13268764B18F8BD
:103418000220002A40F0D6801A604FF0FF325A602E
:103428000323C9E025230093714B019303F10C0298
:1034380002924920A3F10A025021023304F0C6FC8B
:10344800002840F0BF80684B4FF0FF3218605A6088
:103458000623B1E0674A05230021009301910291F8
:10346800532002F1080304F0B1FC002840F0AA80C0
:103478005D4B186007239FE0402007F03DFC0028C3
:1034880040F0A080584D2B680C2B00F2E180DFE85B
:1034980003F0070B0E1219252A2F3337434E52001B
:1034A800554807F0D0FD51E05448554913E05548B8
:1034B8005549564A48E0494B554893F8061793F83A
:1034C800072741E0454B534893F8E0260C2101FBC0
:1034D800023393F8E21607F0B6FD37E03F4B4E484B
:1034E800B3F84011F7E73D4B4C48B3F84211F2E707
:1034F8004B4B4C481969EEE74B4B4C481988EAE7A7
:10350800D6F85836D80404D5344B494893F878117E
:10351800E1E70B232B6019E0304B464893F87C1108
:1035280093F87D2193F87B3107F08DFD0EE042483A
:10353800B6F85C16CFE73B68190507D5274B3F4817
:10354800B3F88011B3F97E2107F07DFD2B680133B4
:103558002B6037E03A4B1B689A0115D5B6F85E36F2
:1035680093B9384BD3F860360D93374B0E201B6850
:103578000E930DA907F0D8FC344B4FF480521A80F3
:103588000923237007F02EF802F06AFA1AE096F879
:103598006436002BF6D02A4B1B689B01F2D4082313
:1035A8002370F1E70F4B1A680F4B5B68C8339A42D8
:1035B80004D909F0F5FF0123237003E007F0CCFBE1
:1035C8000028F6D103F05AF9002872D0012323709D
:1035D8006FE000BF55260020BC1000201803002013
:1035E800E8100020D0230020E010002088260108E1
:1035F800F2260108A4280108893B0108A33B010819
:1036080061370108B83B01084C37010858370108F1
:10361800CC3B0108DD3B0108E73B0108F63B01080C
:10362800B80E0020053C010802000020153C0108E6
:103638001F3C01082C3C0108453C0108503C01088E
:103648003411002030120020CC100020DC100020A3
:1036580007F082FB0028B5D0184B4FF480521A802F
:103668000923A9E7059FB5F806A0B7F80EC0CAEB6D
:103678000C0B584502DDE244504510DB059F32F93A
:1036880003A0B7F80EC06045DFF834C002DD6A88D1
:10369800FFF7C2BB8A88B5F800B0FFF7BFBB60452B
:1036A800CCBFB5F802C0B5F800C022F803C0FFF7D8
:1036B800D4BB15B0BDEC0E8BBDE8F08FDC1000203C
:1036C800441100202DE9F04FA04FA14C3A6826790B
:1036D80002F59C43203387B02360CEB1A3689A4299
:1036E80040F20681013E267102E1DFF880829948A6
:1036F800D8F80030072D98BF595D974B88BF2946E9
:103708001B689847032D09D904EB45050136A881A4
:1037180001F046FBF5B28542E7D31FE0D8F8003048
:1037280005F10E0203EB8202D38812890028EBD040
:10373800C01A4FF47A71D31A484390FBF3F0084447
:1037480040F6C903984205DC40F2EE239842B8BF20
:10375800184601E040F6CA0080B2D5E77F4B1B68E7
:1037680042F2010903EA0909D9F101097C4B38BF82
:103778004FF00009D3F800A09846B9F1000F06D120
:1037880094F8313084F83030764B5A781A7094F8BF
:1037980030302BB1734B93F800B08BF0010B00E085
:1037A8009B460F23002684F83230354601F0F8FA9C
:1037B800854263DABBF1000F02D06B4BF05A00E090
:1037C80058466A4B1B68DA8A824205D8198B8142AF
:1037D80034BF0021012100E00021654A654BC1B9D1
:1037E80052F82520924501D2985B16E0EAB21046BD
:1037F8000192009307F0C4FE019A009B032A0CD89B
:1038080094F832100122AA4021EA020284F83220F8
:1038180003E00AF5967142F82510B9F1000F29D195
:10382800554A12780321B2FBF1F101EB4101511A1B
:1038380005EB450E5EFA81F104EB4101888694F8A8
:103848007C1029B9022A15D9414A012182F87C1035
:103858004A4A06206843111830F802E048888988E7
:1038680070444A32084480B2B05200B2032290FB3E
:10387800F2F080B298530135023697E794F8322077
:103888003F4BB2F10F056A426A4184F8962072B143
:103898003C4A126850010AD4D8F80020D9689A60C6
:1038A800521AC82A20D9012283F821201CE02D4A67
:1038B800012151701170D8F800209968DA605B68AE
:1038C800521A9A4203D92E4B002283F82120002550
:1038D80001F066FA854207DAE8B207F051FE254B97
:1038E80023F815000135F3E7234B1A7801321A70D3
:1038F8001A4B1A6812F4805F984605D0214B1B6852
:10390800D90701D40AF03CF9184B39681868837A4A
:10391800002B3BD0174A013B32F81330027B1AB117
:10392800C3F53B6308339BB21BB2A3F57A73B3F5B7
:103938007A7FA8BF4FF47A7323EAE37307EE903ACD
:10394800B8EEE77ADFED107A59E000BFCC1000201E
:1039580098180020A8100020040000202C0A00203D
:10396800D02300208C010020A4180020E80F00209C
:1039780014100020EE0F0020EC0F0020CC180020BF
:10398800C40F00203411002000007A44D8F8002029
:10399800120440D5D4F898508E4A4D1B002D3ADBBE
:1039A80001F59C452035C2F898508B4DC07A6E7948
:1039B8008A4D35F81650ADB295FBF0F592F89C009B
:1039C800013000F00F0082F89C00024482F89D50FC
:1039D8001A468348185C01330244102B92B2F8D17E
:1039E80012B292FBF3F31BB2642BA8BF642323EA41
:1039F800E37307EE903AB8EEE77ADFED7A7AC7EE2E
:103A0800277A794B9FED797A67EE877AFCEEE77A29
:103A180017EE902A1A80D8F80030754D13F4807F7D
:103A280000F00081734B744F994203D9BA780AB9F0
:103A38000122BA70BA78002A00F0F4806E4A95F82C
:103A4800009092F821606D4AB6F1010EDEF1000691
:103A580056EB0E061168002E93460CBF0322002277
:103A6800C9F38009C1F3806A029297F82020052AD9
:103A780000F2D380DFE802F0034C5175829BB9F164
:103A8800000F38D05E4A10685E4A118807F0A2FD20
:103A9800012808D15C4A1168D4F8B020D288642083
:103AA80000FB02123A61BAF1000F0CD0D4F8B02032
:103AB800127942B107F0BEFE032287F820204FF4A6
:103AC8007A72FA61D1E7002E40F0A7804E4A396930
:103AD8001068494A88420AD9019207F0ABFE019A58
:103AE800032182F8201040F6B831D161BDE70121E9
:103AF80082F82010B9E74FF48060BAF1000F02D0C5
:103B080007F088FE01E007F0B3FE00223A6184E086
:103B1800002E44D107F08EFEA7E726B1052287F8CC
:103B28002020012000E03046B9F1000F0CD0344AC3
:103B38001268D189354A118051809180D4F8B0102B
:103B48004988D180022202922F4A11687A699142EB
:103B580002D8B9F1000F5DD147F23052FA61032261
:103B68001EE02A7842F002022A700AF009F8264A72
:103B78001168FA690A44BA61042211E0224A1168FC
:103B88008EB1BA69914248D9214A12781AB9DBF83C
:103B98000020D00741D42A7822F002022A70052298
:103BA80087F8202061E7FA690A44BA6135E0164AC5
:103BB8001168D4F8B020D288642000FB02123A6160
:103BC8004FF48060002287F82020FA7007F050FE3A
:103BD8004BE700BF981800206A0E00207A0E0020DC
:103BE800351900200000C8426811002000C07F4439
:103BF80053260020404B4C00C40F002034110020F5
:103C0800BC0F0020C00F0020D0230020EE0F0020A2
:103C18008401002000287FF428AF029B13B11846C6
:103C280007F0F6FCA34EA44FB6F84E1106F5C37084
:103C380007F0D0FC814630BBA04B1B6813F0006A2C
:103C480008D0BB7833B907F076FC9D4B012818BF24
:103C5800002018702B78590708D5D8F80020D2060C
:103C680004D4BAF1000F01D0BB785BB3954A12684F
:103C7800012302F57A72FB70BB70914BC4F8B42033
:103C880000221A701EE0D8F80030DB0615D42B7815
:103C9800580712D5894B1B6819010ED5BB7863B13B
:103CA800884B1A68D4F8B4309A4209D907F043FC13
:103CB80030B9834BB870187002E0814B00221A703B
:103CC8000023FB702B785A0742D5D8F80030DB0662
:103CD8003ED57D4B1B78DF063AD47C4B1F7897B1D5
:103CE80096F8E031B9F1000F17D17BB1754B1A681E
:103CF800D4F8B8309B1A002B08DA09F041FF744B4E
:103D080083F8BC9024E0B9F1000F19D1102007F016
:103D18007FFC012384F8BC301AE03BB1694A126881
:103D28004FF47A7101FB0323C4F8B83094F8BC301F
:103D380073B101F055FB664B002283F8BC2007E005
:103D480094F8BC3023B101F04BFB614B83F8BC7095
:103D5800002296F8DEB196F8DF11B6F896E1B6F8CB
:103D680098C113465B4FD05F9B087045C4BF63F092
:103D78007F03DBB202326045B8BF43F04003082A34
:103D8800F0D194F8BD00524A984205D192F8BE008D
:103D9800F92804D8013000E0002082F8BE004B4822
:103DA80084F8BD3003784A4A444F82462BBB3868B2
:103DB800C0070AD582F8BF30B9F1000F1DD12B78A2
:103DC800DB071AD509F042FC17E02B78580714D501
:103DD80092F830308BB1404BDB7873B992F8BF3032
:103DE8000133DBB2032B82F8BF3006D911B109F0D9
:103DF800C7FE02E0B9F1000FF9D094F8BE20344BA9
:103E0800DFF8DC90142A40F09C809AF800201BF11F
:103E1800000B18BF4FF0010B6AB393F8BD205F2A5F
:103E280011D12A7802F0040202F0FF0112B109F060
:103E3800A7FE08E00B200191009307F0E9FB009B27
:103E4800019983F8BE10BBF1000F14D094F8BD306F
:103E58007D2B10D12B7803F0040303F0FF0213B17C
:103E680009F08EFE07E00B20019207F0D1FB184BFA
:103E7800019A83F8BE202B7803F0040303F0FF00B7
:103E8800002B5ED194F8BD30114A572B03D14FF463
:103E98007A72124B4CE0D8F8001049072FD55A2BEC
:103EA8002DD192F8C030EBB1012382F8C00082F81E
:103EB800C13046E0180300208C0100203411002096
:103EC80057260020D0230020650E00208401002002
:103ED80098180020EE0F0020C40F00205026002064
:103EE800A80E002092F8C23083F0010382F8C23095
:103EF8000BB10C2000E00D2007F08AFB21E05D2BC0
:103F080000F0F3835B2B00F0F2835E2B01D10320DA
:103F1800EEE3562B01D107F0C1F89AF800304BB9FF
:103F280094F8BD30972B40F0F983AD4B4FF4C8722D
:103F38001A8006E094F8BD306F2B40F0E78309F053
:103F480085FBD8F80030580736D594F8C230A54A12
:103F580093B12B7859070FD5A34BB3F90610B6F8D0
:103F68009631994208DD3B6813F0010304D13221F0
:103F7800A2F8C41082F8C2303B6813F4803F994B12
:103F88000CD094F8C6202AB993F8C02012B932226E
:103F9800A3F8C420012384F8C6300DE094F8C020AB
:103FA80052B12A7802F0040202F0FF0122B901227C
:103FB80083F8C01083F8C120D9F800A000230AF1C3
:103FC800850B3B600AF1870599460BF1020303EB69
:103FD800090113F809204B7815F8010C9A420AD206
:103FE800294609F059FA30B115F8023C01229A40E5
:103FF8003B6813433B6009F10409B9F1500F05F11F
:104008000405E2D1794B1F782FB1794D2B689A07B7
:1040180000F12E8325E30AF1D50B0AF1D6050BF141
:104028000103D919DA5D4B7815F8010C9A4229D2A7
:10403800294609F031FA28B395F802E06D4B287942
:1040480095F803A00EF1FF3E0EEB4E0E9E44654B15
:104058004FF00C0C03F1C8090CFB00FC09EB0C0138
:104068004A6872450ED0002209F80CA08A60012225
:1040780002FA00F093F8F820C1F804E022EA000000
:1040880083F8F8000637482F05F10605C7D15A4BC3
:10409800DFF870A11D68594B1B68029394F8303003
:1040A80003934FF00009DAF80030002B00F0D082BB
:1040B8001F78002F00F0CC82DAF8042002998A1ABF
:1040C800002A0CDB01F5FA72CAF8042094F8F810FB
:1040D800012202FA09F221EA020284F8F820039A7E
:1040E800002A00F0B5821AF8042C59780432D2B2AA
:1040F800002940F06B823C4931F91220B6F894113E
:1041080001F1C800824202DD93F802B015E0C83917
:104118008A4203DA9B78C3F1000B0EE094F8F8208A
:10412800012303FA09F322EA0303029A84F8F83018
:1041380002F5FA73CAF804308AE294F8F83043FAC0
:1041480009F3DB0700F18482BBF1000FCCBF02202A
:10415800012007F043FB7B1E132B00F27182DFE87E
:1041680013F0140021002E0053006B007200D400DD
:1041780036019C01CA0103026F02530061007200FC
:10418800D4003601A60008016C012F785F44FA2F8D
:10419800A8BFFA2727EAE77728462F7000F0F2FE33
:1041A80001201AE06F785F44642FA8BF642727EACC
:1041B800E77728466F7000F0E5FE02200DE0EF7803
:1041C8000F4B5F44642FA8BF642727EAE777EF7097
:1041D8002846196800F090FE03203946B8E100BF70
:1041E800BE10002098180020EE0F00205526002051
:1041F80034110020CC28010870110020D0230020A1
:104208009C11002064190020697959446429A8BFC9
:10421800642121EAE17169710D2003F093FE0D2FED
:1042280000F00E82297959446429A8BF642121EA43
:10423800E17129710E208BE1A979594481F30801B4
:10424800A971052084E1C44B1B681A78022A20D181
:1042580007EE90BAB8EEE70ADFEDC07A93ED097A77
:1042680080EE270A30EE070AB5EEC00AF1EE10FA22
:1042780007D4B4EE670AF1EE10FAC8BFB0EE670AC9
:1042880001E09FEDB70A83ED090A0F2003F06EFEE7
:104298000AE099785944C829A8BFC82121EAE171E0
:1042A80099700F2003F04EFE0F2F00F0C981AA4B22
:1042B8001B681A78022A1ED107EE90BAB8EEE70AF0
:1042C800DFEDA67A93ED087A80EE270A30EE070A2A
:1042D800B5EEC00AF1EE10FA07D4B4EE670AF1EEB3
:1042E80010FAC8BFB0EE670A01E09FED9D0A83EDA2
:1042F800080A12205DE159785944C829A8BFC82185
:1043080021EAE1715970122022E1934B1B681A7857
:10431800022A20D107EE90BAB8EEE70ADFED8F7ACD
:1043280093ED0C7A80EE270A30EE070AB5EEC00A44
:10433800F1EE10FA07D4B4EE670AF1EE10FAC8BF2E
:10434800B0EE670A01E09FED860A83ED0C0A1020A3
:1043580003F00CFE0AE0197B5944C829A8BFC821FC
:1043680021EAE1711973102003F0ECFD102F00F021
:104378006781794B1B681A78022A1ED107EE90BA1A
:10438800B8EEE70ADFED757A93ED0B7A80EE270A2F
:1043980030EE070AB5EEC00AF1EE10FA07D4B4EE13
:1043A800670AF1EE10FAC8BFB0EE670A01E09FEDA8
:1043B8006C0A83ED0B0A1320FBE0D97A5944C8290B
:1043C800A8BFC82121EAE171D9721320C0E0624B6D
:1043D8001B681A78022A22D107EE90BAB8EEE70ACB
:1043E800DFED607A80EE270AD3ED0F7A30EE270AE8
:1043F800B5EEC00AF1EE10FA09D4DFED587AB4EE42
:10440800670AF1EE10FAC8BFB0EE670A01E09FED47
:10441800540A83ED0F0A112003F0A8FD0AE0997DE4
:104428005944C829A8BFC82121EAE171997511200A
:1044380003F088FD112F00F00381474B1B681A78A1
:10444800022A20D107EE90BAB8EEE70ADFED457AE6
:1044580080EE270AD3ED0E7A30EE270AB5EEC00AB1
:10446800F1EE10FA09D4DFED3D7AB4EE670AF1EE09
:1044780010FAC8BFB0EE670A01E09FED390A83ED74
:104488000E0A142095E0597D5944C829A8BFC821AF
:1044980021EAE171597514205AE02F4B1B681A78EC
:1044A800022A1ED107EE90BAB8EEE70ADFED2B7AA2
:1044B80093ED0A7A80EE270A30EE070AB5EEC00AB5
:1044C800F1EE10FA07D4B4EE670AF1EE10FAC8BF9D
:1044D800B0EE670A01E09FED220A83ED0A0A09207F
:1044E80067E0D9785944C829A8BFC82121EAE171F1
:1044F800D97009202CE0184B1B681A78022A1ED1A3
:1045080007EE90BAB8EEE70ADFED147A93ED0D7A6C
:1045180080EE270A30EE070AB5EEC00AF1EE10FA6F
:1045280007D4B4EE670AF1EE10FAC8BFB0EE670A16
:1045380001E09FED0B0A83ED0D0A0A2039E0597B53
:104548005944C829A8BFC82121EAE17159730A2032
:1045580003F0F8FC74E000BFA01100200000C8427E
:104568000000000000007A448A4B1B681A78022A6F
:1045780022D107EE90BAB8EEE70ADFED877A80EE2F
:10458800270AD3ED107A30EE270AB5EEC00AF1EE0D
:1045980010FA09D4DFED817AB4EE670AF1EE10FA69
:1045A800C8BFB0EE670A01E09FED7D0A83ED100AEF
:1045B8000B2003F0DBFC43E0D97D5944C829A8BF90
:1045C800C82121EAE171D9750B20C1E7012937D14A
:1045D8009978744B33F91220B2F5617F05DB40F608
:1045E80033039A42B8BF134601E04FF461730C2FAE
:1045F80026D14FF4966292FBF1F2A3F5617393FB17
:10460800F2F394F8F9205FFA83FB5A4518D0BBF10E
:10461800030F654994BF5A46022281F8F92063497D
:1046280007FB026202F2E2620A6000F0C5FC38464B
:10463800594603F087FC0BF10100C0B207F0CEF831
:1046480094F8F820012303FA09F3134384F8F830A7
:1046580009F10109B9F1040F0AF10C0A7FF423AD3D
:10466800D3E4D8F80030DF050FD5514BDB7863B1C0
:10467800504B1B68980708D54F4B1B8813F0010750
:1046880008D1012007F0C6F804E0012007F0F0F88F
:10469800012300E000232A6851070BD553B10120FC
:1046A80007F0E6F8444B1B889A0706D4022007F067
:1046B800B1F802E0022007F0DBF82B681B054FF485
:1046C800807002D507F0A6F801E007F0D1F87379F9
:1046D800082B01D00E2B02D1402007F0C9F8012386
:1046E80084F8FA3007B0BDE8F08F012000E002201E
:1046F8005FFA80FA0AF1FF3386F8E03602F0F8F83C
:1047080005F0CAFA504607F069F81AE4BBF1000F41
:104718003FF406AC7E2B7FF403AC10E4A72B05D145
:10472800264B1A7842F004021A700AE40022BB2BC6
:10473800059201D1022303E0B72B04D14FF6FE7393
:10474800ADF816300AE0BE2B01D1022304E0BD2BE0
:104758007FF4F7AB4FF6FE73ADF81430D9F800309C
:10476800BDF81410B3F864200A44A3F86420BDF817
:104778001610B3F866200A44A3F8662002F0B8F8C9
:1047880005F08AFA012007F029F8002384F8BE30E2
:10479800FFF7D7BBA011002000007A440000C842F0
:1047A80000000000EE0F0020981800207011002073
:1047B800C40F0020E40E002032110020650E0020F6
:1047C80030B500221346141820490C5D83EA0423EF
:1047D800082413F4004F4FEA430318BF83F48153AE
:1047E80004F1FF3418BF83F0010314F0FF049BB2F7
:1047F800EFD10132192AE6D100F119028D5C00F1DE
:104808001A028A5C02EB052292B29A421DD1104B21
:104818001D782346DAB2AA4214D2441C04EB4202A1
:10482800D2B28C5C01328A5C02EB0424A4B24FF44D
:10483800AF6254432413074A04F5487422F813401E
:104848000133E7E7044B01221A7030BD94190020A8
:10485800B4100020B6190020B010002003788B4255
:1048680083BF034B03EB4101488C0020704700BF16
:104878009419002003788B420AD9064B1A78064B04
:1048880053F8210002B1400800F5777080B27047F4
:1048980000207047EA230020541A002007299ABFF5
:1048A800024B33F821000020704700BF001B002096
:1048B800024B33F81100C008704700BFC81A002027
:1048C800094BDFED0A7A53F8213006EE903AF8EEFC
:1048D800666AB6EE047AE6EE877AFCEEE77A17EEB9
:1048E800900A80B2704700BF6010002000005C444E
:1048F800014B33F81100704776110020014B33F853
:1049080011007047221B0020014B33F8110070473B
:10491800221B002000207047044A4FF09043128861
:1049280008B19A6170471A85704700BF680E002069
:10493800044A4FF09043128808B11A8570479A616B
:10494800704700BF680E0020FF207047014B1868B1
:10495800C0B270479C210020012070477047704703
:10496800054B1A7802F0FF0122B1012202700022E1
:104978001A70704701707047381A002037B5104B0D
:1049880004465D68187806216A46A847A8B19DF8CC
:1049980000209DF8013043EA022323809DF802207D
:1049A8009DF8033043EA022363809DF804209DF8B4
:1049B800053043EA0223A380012003B030BD00BFC5
:1049C800D00E002013B5104B04465B683B2006212F
:1049D8006A469847A8B19DF800209DF8013043EA3F
:1049E800022323809DF802209DF8033043EA022326
:1049F80063809DF804209DF8053043EA0223A380D4
:104A0800012002B010BD00BFD00E0020016BC268AB
:104A1800034610B5406941B1196C541A0139005D5B
:104A280018BF0A46C0B21A6410BD196A405C013149
:104A3800914228BF0021C0B2196210BD036B13B1A7
:104A48005A68036C01E0C269036A9A423BBFC068B6
:104A58008018C3EB0200C3EB0000C0B27047436B81
:104A680013B190F844007047826A436AD31A5842D7
:104A780058417047436A816A02698B4238BF9B1864
:104A88005B1A416B21B149680B44511E8B4203D21A
:104A9800013AD31AD8B2704700207047334A136CD2
:104AA80090681944081A40F68C23984210B51346AA
:104AB8009160D06051603CD9127893F945108A42D0
:104AC8000BD1111F082908D893F84610182901D8C6
:104AD800013103E083F8442002E0002183F8461006
:104AE80093F944108A421CD1204991F84710C1B16A
:104AF800002191421E4806DA03EB8104246920F85C
:104B080011400131F5E7511E00EB41011630814299
:104B180003D0002421F8024FF9E71649087801303C
:104B2800087083F84520002201211A7083F8471085
:104B380010BD92F84710B9B1A0F2EF2440F2DA5153
:104B48008C4208D811780B2905D80B1D013111703A
:104B580042F8230010BD002283F847209918043238
:104B68000020302A0861F9D110BD00BFB80B002021
:104B7800221B0020201B002010F80A3C0133DBB266
:104B88000A2B00F80A3C07D910F8131C034A002323
:104B980022F8113000F80A3C704700BF221B0020A1
:104BA800024B1A6C0132114419647047B80B00208B
:104BB800024B53F820301B6819607047E00C002046
:104BC800064B53F820301A681B89A1F57A714B43BC
:104BD8004FF47A7093FBF0F313607047E00C0020F9
:104BE800F0B500230E681A460125954005EA06042B
:104BF800AC422ED10D796F1E012F1AD887684FF05D
:104C0800030C0CFA03FC27EA0C07876091F805C02F
:104C180087680CFA03FC4CEA070787608788BFB2ED
:104C280027EA040484808C79878894403C43A4B2A2
:104C38008480032407689C40E44327400760076892
:104C48009D403D430560C5682C40CD799D402C436F
:104C5800C4600132102A03F10203C5D1F0BD38B592
:104C68002DED048B404B0C460168C3F83A1081883F
:104C7800D987023A062A05D8DFE802F0080C12198B
:104C88001E2226005A8F22809A8F0DE09A8F22804A
:104C98005A8F03E05A8F524222809A8F524203E081
:104CA8009A8F524222805A8F6280DB8F14E05A8F8B
:104CB800524222809A8F0CE09A8F22805A8F08E005
:104CC8005A8F22809A8F03E09A8F524222805A8FFD
:104CD80052426280DB8F5B42A380244B1B78002BFF
:104CE8003FD1B4F90210224DB4F9003095ED030A12
:104CF800D5ED007A09EE101A08EE903AB8EEC99A86
:104D0800B4F90430F8EEE88A29EE000A08EE103A01
:104D1800A7EEA80AB8EEC88AD5ED067AA7EE880AE3
:104D28000BF02AFD95ED040AD5ED017A208029EED5
:104D3800000AA7EEA80AD5ED077AA7EE880A0BF0B5
:104D48001BFD95ED050AD5ED027A608029EE000A73
:104D5800A7EEA80AD5ED087AA7EE880A0BF00CFD95
:104D6800A080BDEC048B38BD941900200000002001
:104D7800840E0020094B1B681A7844F6FB7102EB7D
:104D8800421200FB021059789B78C1EB0131B0FB4D
:104D9800F1F0B0FBF3F080B2704700BFC010002004
:104DA800084B93F840204AB9074A1268B2F57A7F4F
:104DB8002ABF064A0A22127883F8402093F8400056
:104DC800704700BF94190020EC0E0020A8100020A6
:104DD800034B1B68DA79511CD9711344187A704750
:104DE8002411002010B5FFF7F3FF0446FFF7F0FF8A
:104DF80004EB002080B210BD10B5FFF7F3FF0446A6
:104E0800FFF7F0FF04EB004010BD094B5A688242DF
:104E180009D01A69824205D0DA69824208BF18337C
:104E280005D100E00C330022C2621A725A60704742
:104E38000C0B002038B50D4D2B688342044606D173
:104E4800FFF7E3FF284600214C220BF085FAEB6CB4
:104E5800A34209D12046FFF7D8FF054800214C227C
:104E6800BDE838400BF078BA38BD00BF240F0020E9
:104E7800700F00200B4B1B6893F90210814203F15D
:104E880002020BD093F90A10814203F10A0205D0FD
:104E980003F1120293F91230834201D11046704790
:104EA80000207047040B002030B50D4B0D4A1C68DC
:104EB80092F84130022B0ED8591C04EBC303C9B237
:104EC8009D88284203F1020303D082F84110184656
:104ED80030BD0B46EEE782F84130002030BD00BF00
:104EE800040B002094190020024B002283F8412073
:104EF800DAE700BF941900202DE9F0478278C678D8
:104F08001F4BC2F1640802EB820C54425FFA88F826
:104F18004FEA4C0CC6F16409A4B203F11807A0B219
:104F28000FFA80FABAF1000F04DC002814BF154606
:104F3800012500E0454610FB00F0704315FB05F520
:104F480090FBF5F54D4405FB0AF50A2095FBF0F5B5
:104F58006544ADB25D800888B1F802A02DB2C0EBFF
:104F68000A0A05FB0AF54FF47A7A95FBFAF5284404
:104F780023F8020F0A34BB42A4B2D0D1BDE8F087AF
:104F8800A613002010B544780078002303FB03F132
:104F98001939614301F6C411594340F6C41241431B
:104FA80091FBF2F1034A22F813100133072BEDD1DC
:104FB80010BD00BF7813002010B50D4C2068FFF716
:104FC800E1FF2068047A002303FB03F119396143E8
:104FD80001F6C4115943192291FBF2F1054A22F84E
:104FE80013100133072BEFD10349BDE8104083E7C5
:104FF800701100208E13002058040020084B33F94C
:105008001000411A01F2F31240F2E6339A4204D832
:1050180081EAE170A0EBE17070474FF4FA707047D5
:10502800EE0F002010B50023C25C8A4204D1C218DA
:105038009478D278944204D30433502BF4D10020CE
:1050480010BD012010BD10B5094A0A4913688868C7
:1050580000BF12689342F7D1074A11684FF47A7279
:1050680002FB01F4201AB0FBF1F002FB030010BDB3
:10507800D023002010E000E00C030020F8B52D4EEE
:105088002D4C2E4D0746FFF7DEFF736C7064C31A74
:10509800B3F5FA5FB36402D9002323702B70237829
:1050A8001BB9A12F04BF01222A702A781AB1FFB2B6
:1050B800F75401332370224B21781A7891421F4606
:1050C80036D1204B1B78052B02D0062B03D02CE0C1
:1050D8000020FFF775FB73781E2B26D13878002245
:1050E80001381346D1B2814219DA775C19463B463A
:1050F800082781EA030C1CF0010F1CBF83F018037A
:10510800C3F3460307F1FF370CBF5B0843F0800386
:1051180017F0FF07C1F34701EBD10132E2E7325C38
:10512800934202D10320FFF74BFB00232B7023701F
:10513800F8BD00BF94190020B2100020B110002063
:10514800B3100020B510002010B50446FFF77BFF10
:105158000F4BDA6CD864821A41F288318A421A6598
:1051680084BF002283F8542093F854300F2B0DD8B5
:105178005A1C0749D2B281F854200649E4B2102AD1
:10518800CC54054B14BF002201221A7010BD00BF79
:1051980094190020421A0020411A002010B5044634
:1051A800FFF751FF0D4B9A6D9865821A41F28831CD
:1051B8008A42DA6584BF002283F8602093F8603061
:1051C800074A142BD45403D1064B01221A7010BD80
:1051D800024A013382F8603010BD00BF94190020E4
:1051E800E91A0020E81A002010B50446FFF72BFF43
:1051F800244A536E5066C31AB3F57A6F84BF0023EE
:1052080082F8683092F8683033B9A82C39D11E4931
:105218000B701E490B8006E0022B02D11C490C7052
:1052280001E0242B01D81B49CC540133DBB282F8AE
:105238006830174A127802325200934217DA134A3A
:105248001388E0B283EA0020082310F4004F4FEAE5
:10525800400018BF80F4815003F1FF3318BF80F07D
:10526800010013F0FF0380B2EFD1108010BD0132AE
:10527800934206D1034B002283F86820024B012297
:105288001A7010BD941900209E1A0020A01A002040
:105298009F1A0020A21A002010B50446FFF7D3FE7B
:1052A800104AD36E40F6AC51C31A8B42C4BF0023D8
:1052B80082F8703092F8703023B90F2C10D1094958
:1052C800C86601E0182B0BD8591CC9B282F87010B7
:1052D800054A1929D454054B14BF002201221A701B
:1052E80010BD00BF94190020851A0020841A0020E0
:1052F80008B50F4B1B78012B0DD008D3022B0DD10D
:105308000C4B9A8A92B282F008029A8206E0094B04
:1053180008229A6102E0074B08221A85FFF793FEDC
:10532800054B00F5F42000F59070186008BD00BF2B
:10533800D813002000040048DC13002038B50446C8
:10534800FFF781FE0546FFF77EFE401BA042FAD319
:1053580038BD10B504462CB14FF47A70FFF7EEFF54
:10536800013CF8E710BD08B50F4B1A780023D9B2F5
:10537800914207D20D4951F82310096800200860AE
:105388000133F4E73220FFF7E4FF094B1B685A03A7
:1053980008D5084B9B685B0304D440F2DC50BDE899
:1053A8000840D6E708BD00BF300D0020E00C002003
:1053B8002C0A002018030020044A08B5536823B1BA
:1053C80092F90020824200D1984708BD10030020BE
:1053D80008B5024B1B68984708BD00BF3826002057
:1053E80010B50020FFF7F4FF064B00241C70FFF7F0
:1053F8007FFF054B1C70054B1C60054B1C80054B43
:105408001C6010BDD813002098230020942300208E
:10541800902300208C2300202DE9F84381460B2699
:10542800013E29D01C4B08229A6109F10108322754
:105438000524194DAB8A9BB283F00803AB82012087
:10544800FFF7C6FF3846FFF784FFAB8A9BB283F0AD
:1054580008030020AB82FFF7BBFF3846FFF779FF50
:105468003CB1013CE5D14FF4FA70FFF772FFFA271F
:1054780007E008F1FF3804E0084B094ADA60BDE8A4
:10548800F883B8F1000F01D00024D2E74FF47A7006
:10549800FFF75FFFC4E700BF0004004800ED00E02D
:1054A8000400FA0508B503685B69984708BD10B59C
:1054B80004462046FFF7F6FF18B90A20FFF749FF10
:1054C800F7E710BD08B503681B68984708BD064B89
:1054D80010B5044621461868FFF7F4FF034B1B6814
:1054E8009A7954409C7110BD281100202411002085
:1054F80038B5044624200D46FFF7E9FF4D20FFF795
:10550800E6FF002C084C0CBF3E202120FFF7DFFFF0
:105518002368002228469A71FFF7D9FF236893F879
:105528004900BDE83840D2E7241100200146002098
:10553800DEE710B50446C0B2FFF7C9FF200ABDE890
:105548001040C4E710B5044680B2FFF7F2FF200C04
:10555800BDE81040EDE7024B01461868B2E700BF0E
:10556800EC10002010B5441E14F8011F21B1034BA4
:105578001868FFF7A7FFF7E710BD00BFEC10002081
:105588000048EFE7143D0108014B18689AE700BF8F
:105598002C11002038B500240E4D0F482C702146E0
:1055A80070220AF0D9FE21460C4B1B680B4493F974
:1055B80002206AB108481C680C500A189888908024
:1055C8009B7993712B780731013370292B70EBD1BC
:1055D80038BD00BFF40D0020F50D0020380B002069
:1055E800094B1B680E2202FB0030437AFF2B07D0C1
:1055F800064A12789A4203D9054A32F8130000E0A5
:10560800808800B2704700BF18140020A81000203E
:10561800EE0F00202E4BD3ED007A2E4B93ED007A3F
:105628002D4B67EE474AF7EE002AB0EE006AB0EE5F
:10563800625AD3ED006A294BA4EE865A26EEE63A62
:10564800D3ED005A264B27EE872AA3EE065AF0EE32
:10565800421AA5EEA62A83ED005AB1EE655A67EE06
:10566800A63A27EE264AE5EE261A72EE026A71EE8F
:10567800A11AC3ED036A67EEE76AC3ED011AE6EE05
:10568800862AF0EE631AF0EE626AE3EE062AB0EEBE
:10569800443AE5EE871AA5EE273AE5EE073AA5EE75
:1056A800A74AE4EE866A71EEA11A33EE033A33EEA6
:1056B800A37A74EE047AC3ED021AC3ED042A83EDCB
:1056C800053A83ED067AC3ED077AC3ED086A704799
:1056D8004C13002050130020541300208801002090
:1056E8001C13002090ED017AB5EE407AF1EE10FA25
:1056F8000DD107EE101AF8EEC77A9FED0D7A67EE16
:10570800877AB7EE007AC7EE277AC0ED017A90ED76
:10571800017AD0ED007A30EE877A30EE670AC0EE73
:10572800870AE0EE807AB0EE670AC0ED007A70472B
:10573800DB0FC94010B50278202A034600F10100AA
:10574800F9D0092AF7D02D2A03D10346BFEE000A63
:1057580004E02B2A08BF0346B7EE000A9FED377A0C
:105768001A46134612F8011BA1F13000C4B2092CE5
:105778000AD805EE900AF8EEE57AF2EE046AE7EE4A
:10578800267AB0EE677AECE72E2915D1F2EE047A84
:10579800F0EE676A134612F8011B3039C8B20928BF
:1057A8000AD805EE901AB8EEE56A86EE276A67EE23
:1057B800A67A37EE067AEDE71A7802F0DF02452A74
:1057C80034D15A782D2A02D10233012204E02B2A3F
:1057D80014BF013302330022013B002113F8010FEB
:1057E8003038C4B2092C03D80A2404FB0101F5E7B8
:1057F800B1F59A7F34BF0B464FF49A731946F7EE0A
:10580800007A072905D9DFED0E6A083967EEA67A0E
:10581800F7E703F007032BB1F2EE046A67EEA67A06
:10582800013BF8E722B1C7EE277A03E0F7EE007AEA
:1058380067EE277A20EE270A10BD00BF000000009F
:1058480020BCBE4CF0B50124B0FBF4F58D4201D369
:105858004C43F9E70026DCB1B0FBF4F504FB150076
:10586800B4FBF1F41EB9002D01DC002CF3D1092D95
:1058780003F101075FFA85FC04DD002A0CBF5725F8
:10588800372500E0302565441D7001363B46E2E7C8
:105898001C70F0BDF0B50124B0FBF4F58D4201D3C6
:1058A8004C43F9E70026DCB1B0FBF4F504FB150026
:1058B800B4FBF1F41EB9002D01DC002CF3D1092D45
:1058C80003F101075FFA85FC04DD002A0CBF5725A8
:1058D800372500E0302565441D7001363B46E2E778
:1058E8001C70F0BD70B50646B6FBF2F408461546C6
:1058F80014B12046FFF7F6FF05FB1464024B1B5D4D
:1059080000F8013B70BD00BF223D01082DE9F843B6
:10591800089E002B0746884614460CBF4FF0200906
:105928004FF03009334613F8012B0AB9254603E036
:10593800002CFBDD013CF6E7002D04DD3846494626
:10594800C047013DF8E724EAE4742546331B595D56
:1059580019B13846C0470135F8E72846BDE8F8834D
:1059680080EAE073A3EBE0738B4206DB002801DDDD
:10597800401A704702D00844704700207047FDEE77
:10598800C07A17EE903A2033402B43D8DFED237AC4
:10599800B4EEE70AF1EE10FA04DDDFED217A30EE1D
:1059A800670AF3E7DFED1F7AB4EEE70AF1EE10FAC3
:1059B80004D5DFED1B7A30EE270AF3E7DFED1A7A1C
:1059C800B4EEE70AF1EE10FA04DD30EE670A37EEBE
:1059D800C00A0AE09FED157AB4EEC70AF1EE10FA94
:1059E80044BF30EE270A37EE400A60EE007ADFED5A
:1059F800106A9FED107AA7EEA67ADFED0F6AE7EE40
:105A0800876A9FED0E7AA7EEA67A20EE276AA6EEA1
:105A1800070A70479FED060A704700BFDB0F494031
:105A2800DB0FC940DB0F49C0DB0FC93FDB0FC9BF24
:105A38000000000092E741B99730083C15A82ABE3B
:105A4800024B9A6822EA0000986070471803002009
:105A5800024B9A6810439860704700BF18030020F3
:105A68000A4B1A8801321A80094B1A6801321A60E7
:105A7800084B1A88013292B2202A04D100221A80D7
:105A8800054B1A8801321A80704700BFDC100020CD
:105A9800901800208E1800206A2500202D4B2E4AD1
:105AA8001B68126810B51A602C4A11685960516851
:105AB8009268DA602A4A9960116819615168926897
:105AC8009A61284A59611168D961516892685A6285
